:020000040800F2
:10000000E88B0020DD01000803160008E701000866
:1000100001160008CF0C00086D2900080000000040
:100020000000000000000000000000004501000882
:10003000090D000800000000890100085D1A000891
:10004000F7010008F7010008F7010008F7010008B0
:10005000F7010008F7010008F7010008F7010008A0
:10006000F7010008F7010008F7010008F701000890
:10007000F7010008F7010008F7010008F701000880
:10008000F7010008F7010008F7010008F701000870
:10009000F7010008F7010008F7010008F701000860
:1000A000F7010008F7010008F7010008F701000850
:1000B000F51A0008F7010008F7010008F701000829
:1000C000F7010008F7010008F7010008F701000830
:1000D000F7010008091E0008451E0008811E0008DF
:1000E000F7010008F7010008F7010008F701000810
:1000F000F7010008F7010008F7010008F701000800
:10010000F7010008F7010008F7010008F7010008EF
:10011000F7010008F7010008F7010008F7010008DF
:10012000F7010008F7010008F7010008F7010008CF
:10013000DFF80CD000F018FC00480047F57B000801
:10014000E88B0020224B19680868B0E8F00F80F3B4
:100150000988BFF36F8F4FF0000080F311884EF0D5
:100160000D0E70470000000006480068006880F32C
:10017000088862B661B6BFF34F8FBFF36F8F00DFA1
:1001800000BF00BF08ED00E0EFF30980BFF36F8F01
:100190000F4B1A6820E9F00F106008B54FF0BF0050
:1001A00080F31188BFF34F8FBFF36F8F13F0E2FF1F
:1001B0004FF0000080F31188BDE808401968086816
:1001C000B0E8F00F80F30988BFF36F8F704700BF6E
:1001D00090000020EFF3058070470000064880473C
:1001E00006480047FEE7FEE7FEE7FEE7FEE7FEE71C
:1001F000FEE7FEE7FEE7FEE7891A00083101000886
:1002000030B50B46014600202022012409E021FAE6
:1002100002F59D4205D303FA02F5491B04FA02F5E3
:100220002844151EA2F10102F1DC30BD2DE9F05F7A
:100230000546002092469B46884606468146402455
:100240001BE0284641464746224600F0FDF953464A
:100250005A46C01A914110D311461846224600F062
:10026000E4F92D1A67EB01084F46224601200021D0
:1002700000F0DBF917EB00094E41201EA4F1010448
:10028000DFDC484631462A464346BDE8F09F000081
:1002900000487047F456010810B5431A934209D23A
:1002A0008318881803E010F8011D03F8011D521E81
:1002B000F9D210BD40EA01039B0703D009E008C949
:1002C000121F08C0042AFAD203E011F8013B00F81B
:1002D000013B521EF9D210BDD2B201E000F8012B51
:1002E000491EFBD270470022F6E710B513460A46B6
:1002F00004461946FFF7F0FF204610BD421C10F8D7
:10030000011B0029FBD1801A704730B5054600203B
:10031000034600E05B1C934205D2EC5CC85C201AEB
:1003200001D1002CF6D130BD70B50F4D00B9286851
:10033000002412E00A4602E09E4203D0521C1378C9
:10034000002BF9D1DAB2224305D02BB124B1002120
:1003500000F8011B04E00446401C0678002EE9D199
:100360002860204670BD00003401002070B50646AC
:1003700002F038FB046805460A220021304600F0EE
:1003800085F92C6070BD2DE9FE4F804681EA03009F
:10039000C00F0C46009021F0004123F00045B8EB5F
:1003A0000200A94105D24046214690461C460B4614
:1003B000024623F00040104347D0270DC7F30A0040
:1003C000C3F30A510290401A019040286BDAC3F33C
:1003D000130040F4801B0098924620B10023D2EB1A
:1003E000030A63EB0B0B01985946C0F140025046DB
:1003F00000F01BF906460D4650465946019A00F09A
:1004000033F910EB08006141002487EA115284EAB5
:10041000E7731A4340D0009A62B3019A012A4FEA67
:10042000075215DC001B61EB02014FF0004202EAAB
:100430000752CDE90042001C41F5801132462B469F
:1004400000F0A2F903B0BDE8F08F40462146F9E77D
:10045000001B61EB0201001C41F5801300185B4199
:100460002018A2F5001747EB030140EAD570B61932
:100470006D4111E06D084FEA360645EAC0754FEA56
:100480000752001B61EB0201001C41F58011490875
:100490004FEA30000019514132462B4603B0BDE807
:1004A000F04F00F062B90098012240000023D0EB29
:1004B000020263EBE073009821464FEAE074B8EB68
:1004C000000061EB0401E9E783F000435BE781F0A2
:1004D000004158E72DE9F04D81EA030404F0004B98
:1004E00021F0004514464FF0000A23F0004150EA85
:1004F000050220D054EA01021DD0C5F30A57024676
:10050000C5F31303C1F31300C1F30A5640F4801579
:1005100043F48013A7EB0608101BD64608F2FD38FB
:1005200073EB050002D308F1010801E092185B416A
:10053000B8F1000F03DA00200146BDE8F08D00207D
:100540004FF48011064684460EE0171B73EB050737
:1005500005D3121B63EB050306434CEA010C490863
:100560004FEA300092185B4150EA0107EDD152EAA0
:10057000030012D082EA040083EA0501084305D093
:10058000101BAB4106D20122002306E000224FF0EF
:10059000004302E06FF0010253101AEB06004CEB2F
:1005A000085110EB0A0041EB0B01BDE8F04D00F0E3
:1005B000DCB80EB540F2334102910021CDE90011C3
:1005C0000A460B4600F0E0F803B000BD00F0004220
:1005D00030F000400AD0C10D01F56071C0F3160083
:1005E00042EA0151C208400711437047002001460A
:1005F000704701F0004330B421F0004150EA01029D
:1006000006D00A0DA2F56072C1F31301002A02DCC4
:1006100030BC00207047440F44EAC104C100E01818
:1006200030BC00EBC25000F069B8202A04DB203A4D
:1006300000FA02F1002070479140C2F1200320FA35
:1006400003F3194390407047202A04DB203A21FA33
:1006500002F00021704721FA02F3D040C2F12002DB
:100660009140084319467047202A06DBCB17203AF1
:1006700041FA02F043EAE07306E041FA02F3D040A7
:10068000C2F1200291400843194670472DE9F04716
:1006900091460F4680460446002614F8015B2DB1B2
:1006A000FFF7F6FD0068405DC007F6D12B2D02D0A4
:1006B0002D2D18D0641E4A463946204600F066F9B2
:1006C00027B13968A14201D1C7F8008071054FF008
:1006D00002040BD54042002803DD02F083F90460D8
:1006E000A007BDE8F08746F48066E4E70028F8DA62
:1006F00002F078F904606FF00040F2E70029A8BF2B
:100700007047401C490008BF20F00100704710B43A
:10071000B0FA80FC00FA0CF050EA010404BF10BCEF
:10072000704749B1CCF1200421FA04F411FA0CF11C
:1007300018BF012121430843A3EB0C01CB1D4FEA55
:1007400000614FEA102042BF002010BC704700EB50
:10075000C35010440029A4BF10BC7047401C49007E
:1007600008BF20F0010010BC704710B5141E73F1D3
:10077000000408DA401C41F1000192185B411A4361
:1007800001D120F0010010BD2DE9F04D92469B46AD
:1007900011B1B1FA81F202E0B0FA80F22032904653
:1007A000FFF743FF04460F4640EA0A0041EA0B0107
:1007B00053465A46084313D0114653EA010019D054
:1007C000C8F140025046FFF73FFF05460E4650462F
:1007D00059464246FFF729FF084305D0012004E0AF
:1007E00020463946BDE8F08D0020054346EAE07614
:1007F0002C4337430A986305E40AA0EB0800002263
:10080000FD0A44EA47540A3002D500200146E9E7D0
:10081000010510196941DDE9084500196941BDE884
:10082000F04DA2E72DE9FE4F81EA030404F00044F5
:1008300021F0004100944FF0000B23F0004350EAF8
:1008400001045ED052EA03045BD0C3F30A54C1F33F
:100850000A552C44A4F2F3340194A0FB0254C1F3D2
:10086000130141F48011C3F3130343F4801301FB1C
:10087000024400FB034E840A970A44EA815447EA83
:100880008357A4FB076802958D0A05FB07854FEA8D
:10089000932C04FB0C542705029D4FEA065847EAA7
:1008A0001637B5EB08056EEB070C870E920E47EA7C
:1008B000811742EA8312A7FB0201B6EB0B0164EB3E
:1008C00000042B0D43EA0C335E1844EB1C50DA464F
:1008D0005146E7FB0201C5F313044FEA0B3343EA29
:1008E00014534FEA0432019C43EA0603A4F10C04BA
:1008F0000294009CCDE900B4FFF746FF03B0BDE8C9
:10090000F08F00200146F9E7C1F30A52C1F3130149
:1009100040F2FF3341F480119A4202DA002001468E
:10092000704740F233439A42A2F2334202DC524211
:10093000FFF78ABEFFF779BE30B5041E71F10004DF
:1009400004DB4FF00044404264EB0101141E73F1DC
:10095000000405DB1C464FF00043524263EB0403E6
:10096000994208BF904230BD064C074D06E0E06852
:1009700040F0010394E8070098471034AC42F6D3E6
:10098000FFF7DAFB0C6501082C6501082DE9F05F23
:1009900082460078002715468B460AF10104B946C5
:1009A000302801D09DB113E014F8010B01277828FD
:1009B00003D0582801D045B10AE00DB1102D07D160
:1009C0000027102514F8010B02E0082500E00A2595
:1009D0000026B0460EE005FB080005FB06F10127E6
:1009E00001EB10461FFA80F8B6F5803F00D3B946F8
:1009F00014F8010B294600F018F80028EBDABBF1D7
:100A0000000F05D00FB1641E00E05446CBF8004043
:100A1000B9F1000F06D001F0E5FF02210160C81E08
:100A2000BDE8F09F48EA0640FAE73A2800D230389D
:100A300020F02002412A01D3A2F13700884201D3DD
:100A40004FF0FF30704770B58C1810F8015B15F04F
:100A5000070301D110F8013B2A1106D110F8012B30
:100A600003E010F8016B01F8016B5B1EF9D12B0755
:100A700005D40023521E0DD401F8013BFAE710F80B
:100A8000013BCB1A921C03E013F8015B01F8015BF8
:100A9000521EF9D5A142D8D3002070BD70B50024F4
:100AA00022460421012013F0D5FB1C4D286010B90B
:100AB0001BA001F017FD00220421012013F0CAFB46
:100AC000686010B91DA001F00DFD00220421012075
:100AD00013F0C0FBA86010B91FA001F003FD0022B5
:100AE0000421012013F0B6FBE86010B922A001F048
:100AF000F9FC00220421012013F0ACFB286110B99D
:100B00001DA001F0EFFC244D012013F091FB45F8EE
:100B10002400641CE4B2062CF6D370BD0001002052
:100B20007851756575655F4C6564206372656174A5
:100B300065206661696C65640D0A00007851756511
:100B400075655F4B657920637265617465206661C8
:100B5000696C65640D0A00007851756575655F43C1
:100B60006563547820637265617465206661696CA1
:100B700065640D0A000000007851756575655F4574
:100B800050726F636573732063726561746520666C
:100B900061696C65640D0A004C6C00201CB54FF453
:100BA0007A7003F02DFB00F097FF00F027FD002482
:100BB0000420CDE900042346802211A1134813F03C
:100BC0008BFD0320CDE9000400234FF4007210A137
:100BD000124813F081FD0520CDE9000400234FF4F5
:100BE00080720FA1114813F077FD0620CDE90004B3
:100BF00000234FF480620EA1104813F06DFD1CBD60
:100C0000765461736B4C45440000000009400108B4
:100C1000765461736B456570726F6D003D3E0108DF
:100C2000765461736B4B657900000000F13F010859
:100C3000765461736B55617274000000DD410108E8
:100C40002DE9F0410F46044613F0CAF9134D144E36
:100C5000012806D1285D4FF0FF3156F8200013F02F
:100C60007BFC13F08DF80D480623801C3A46015D8D
:100C7000204602F08BFC13F091F813F0B1F9012833
:100C800009D1285D00231A4656F82000BDE8F0413E
:100C9000194613F035BBBDE8F0810000300100209B
:100CA0004C6C002010B503F09BFA4FF4407000F03C
:100CB000DBFC00F0FFF800F00BFA02F06BFC00F038
:100CC000F9FC03F0CDFABDE8104003F0CFBAFEE71F
:100CD00030B50446002012E014F8013B002280EAFF
:100CE0000305ED0705D080F01800400840F08000B3
:100CF00000E04008521C5B08D2B2082AEFD3491E1C
:100D0000EAD230BD00F034BC70470000FEB5454C5F
:100D100040F27512444945A002F052FC022202A999
:100D2000002003F0B3FA4AF2A7569DF809209DF877
:100D30000810334641A002F043FCBDF808004FF410
:100D40006767BD1CB04248D0A7208DF80800A520D9
:100D50008DF80900022102A8CDE9000100234FF41B
:100D6000C1723149454802F02BFC022202A9002041
:100D700003F0D0FA02F0DAFB3E46394640A002F01A
:100D80001FFCCDE9004602234FF4DF7226493F489D
:100D900002F016FC32462146022003F0BBFAD4F8DA
:100DA000700E00283CD0B4F8742E002A38D031469A
:100DB000374802F005FCB4F8741ED4F8700ECDE983
:100DC00000012B464FF4E6721749324804F5676478
:100DD00002F0F6FBA28821681FE03A462146022075
:100DE00003F054FA10F0F8FF20B93A4621460220E9
:100DF00003F090FAD4F8701E002911D0B4F8742EC4
:100E0000002A0DD0284603F041FAFFF77BFF0028A7
:100E100006D1B4F8742ED4F8701E284603F07AFA7E
:100E2000FEBD0000606D0020B8550108653270728B
:100E30006F6D2025732025640D0A00004144445243
:100E40005F454550524F4D5F434845434B5F4D41D1
:100E5000494E5F5645522030782530327820307820
:100E600025303278204445465F4D41494E5F564516
:100E7000523A307825303478200D0A002C6401086D
:100E800073697A653A2564200D0A000060630108E1
:100E900000630108B863010810B5002306E05B1C7D
:100EA000DBB2401C934201D9002010BD04788C4273
:100EB000F5D110BDF8B501213D2000F037FC01212E
:100EC0001A4800F087F81A4F1A4E002505EB450026
:100ED00007EB40042078411E06291FD803218DF816
:100EE00002106188ADF8001021798DF8031006EB2F
:100EF0008000694650F8040C00F01EF82079142890
:100F000001D010280AD1607961880128207806EB89
:100F1000800050F8040C06D000F099F86D1CEDB27A
:100F2000172DD3D3F8BD00F094F8F7E70002300096
:100F30004853010860000020F0B5CC78002204F08E
:100F40000F03E40601D58C7823430C784FF00F0C87
:100F500014F0FF0F4FF0010E1BD005680E880EFA3B
:100F600002F42640A64210D196000CFA06F725EAB4
:100F7000070703FA06F5CE783D43282E02D0482E07
:100F800002D002E0446100E00461521C082AE5D36B
:100F900005600A88FF2A1CD94468002202F108066D
:100FA0000EFA06F50E882E40AE420ED196000CFACF
:100FB00006F7BC4303FA06F7CE783C43282E00D14F
:100FC0004561CE78482E00D10561521C082AE5D330
:100FD0004460F0BDF0B5144C002801DAE36900E08C
:100FE0006368450D2E0185B2C0F30157B540C0F3CB
:100FF0000342032F05D0C6020AD503269640B34309
:1010000007E023F07062636823F07063636002E0BE
:10101000AB4343F0706201B12A43002801DAE26178
:10102000F0BD6260F0BD00000000014002460020FB
:1010300092680A4200D001207047C06880B27047B1
:1010400002460020D2680A4200D001207047416168
:10105000704701617047C16070470AB10161704714
:1010600041617047012905D0A0F1300109290DD84F
:10107000C8B2704700F00F01092901D8303003E0F1
:101080000A390529F5D83730C0B27047A0F14101BF
:10109000052901D83738F7E7A0F161010529F4D80F
:1010A0005738F1E7034600209A8A1B8B42EA034235
:1010B00022F07F42914300D101207047002901882E
:1010C00002D041F0010101E021F0010101807047EF
:1010D0002DE9F043012185B0480500F00FFB012107
:1010E000880500F00BFB0121082000F01FFBC02049
:1010F000ADF810001C25254E8DF8135003248DF8F3
:10110000124004A93046FFF717FFA002ADF8100007
:101110008DF813508DF8124004A93046FFF70CFFEC
:1011200000243615DFF86C90ADF804404BF6FF75DF
:10113000ADF808403701DFF85880ADF80650ADF83B
:101140000A60ADF80C7069464846CDF8008000F0A2
:101150004FF801214846FFF7B1FFADF80440ADF864
:1011600008400D4CADF80650ADF80A60ADF80C70B3
:1011700069462046CDF8008000F03AF8012120466B
:10118000FFF79CFF05B0BDE8F0830000000C0140B4
:10119000E0930400005400400058004000290188FA
:1011A00002D041F4807101E021F480710180704728
:1011B0000029018802D041F4007101E021F400719E
:1011C000018070470CB50246002000920A0F21F002
:1011D0007F41019202D0009A143202E0009A090C79
:1011E0001832009212680A4200D001200CBD0000A3
:1011F00070B50446808886B00D4620F03F066846EC
:1012000000F0ACFA27490298B0FBF1F189B20E4325
:10121000A680228822F001022280234B2A689A426B
:101220001CD85200B0FBF2F080B2042800D2042097
:10123000491C2184A083208840F001002080208860
:101240004FF6F5310840A9886A891143014321808E
:10125000A88929890843208106B070BDEB88A3F5D1
:101260003F46FF3E0BD002EBC20303EB0212B0FB82
:10127000F2F080B240F48040020506D007E002EBB5
:101280004202B0FBF2F080B2F6E740F001004FF40A
:10129000967251434FF47A72B1FBF2F140F4004080
:1012A000C6E7000040420F00A086010012B141F0E5
:1012B000010101E001F0FE010182704701827047E7
:1012C0002DE9F0479046040099460D464FF0000A7C
:1012D0000A4608D037A139A002F072F9424E434FB6
:1012E0001CB1304602E042A1F5E738464FF4003128
:1012F00000F0A6F828B95346EC223F493FA002F07F
:101300005FF90CB1304600E038460121FFF746FF97
:101310000CB1304600E03846404900F0A6F828B944
:101320005346F422344935A002F04AF90CB1304654
:1013300000E0384600222946FFF7B8FF0CB13046DE
:1013400000E03846364900F090F828B95346FC22B0
:1013500029492AA002F034F900251FE018F80510E9
:101360000CB1304600E03846FFF7A8FF18F805201A
:1013700029462CA002F024F90CB1304600E0384692
:101380002749891C00F071F830B953464FF4867232
:1013900019491AA002F014F96D1CEDB24D45DDD3C8
:1013A00004B93E4630460121FFF702FF0120BDE8A7
:1013B000F087000049324332000000006465763A4D
:1013C0002025732C736C617665416464723A203019
:1013D00078253032782C646174615F6E756D3A20C7
:1013E00025640D0A00000000005400400058004031
:1013F0004932433100000000F555010866756E63FF
:1014000074696F6E3A25732C6C696E653A25642C8D
:10141000636E743A25640D0A0000000001000300A9
:10142000820007005772697465204949432064614E
:1014300074615B25645D3A2530327820210D0A0005
:101440002DE9F0410E46074601254FF47A7401E07C
:10145000641E08D031463846FFF7B4FE0028F7D1A5
:101460002846BDE8F0810025FAE72DE9F0410E4657
:10147000074601254FF47A7401E0641E08D0314616
:101480003846FFF70FFE0128F7D12846BDE8F08166
:101490000025FAE770B5074D2C4606E0601BC0F347
:1014A000C700002110F0D4FC083420680028F5D1D2
:1014B00070BD0000805501080EF06ABB10B5002019
:1014C0000EF052FB002812D04FF4FA7100200EF0FB
:1014D00057FB0748417919B100214171022101E010
:1014E00001214171BDE81040002006F05FBB10BD36
:1014F00014000020064A0549034811600549407858
:1015000008700EF033BC000023000020B91400085E
:101510002C0100201E01002010B5094C9822094919
:1015200009A002F04DF8012020700020401CC0B23C
:101530000928FBD30020401CC0B20228FBD310BDF9
:10154000230000207B540108653270726F6D202DDE
:10155000206170705F5573657244617461546F44AB
:10156000656661756C742025732025640D0A000082
:1015700070B5094C012502212046FFF7A9FBA1788F
:10158000884207D0FFF7C8FF02212046FFF7A0FBE3
:10159000A0700025284670BD2300002010B5FFF77D
:1015A000BBFFBDE810409022014902A002F008B83C
:1015B0005C540108653270726F6D202D206170706F
:1015C0005F5573657244617461546F4465666175FB
:1015D0006C742025732025640D0A00000649054817
:1015E00000220A808A70C0F8701E0321A0F8741EC1
:1015F00070470000606D0020230000200EF072BADA
:10160000FEE7704730B50F23C27801780125F2B1AB
:10161000144A126801F1E02102F4E062C2F5E062CE
:10162000120AC2F10404D3404278A24084781C40DC
:101630001443220181F80024007800F01F018D403E
:101640004009800000F1E020C0F8005130BD01F0F9
:101650001F0085404809800000F1E020C0F880515B
:1016600030BD00000CED00E002490843024908606B
:10167000704700000000FA050CED00E0024A11403E
:10168000014302480160704780FFFF1F08ED00E042
:10169000042803D2034951F8200008B10020704704
:1016A00001207047D87B0020014951F82000704785
:1016B000D87B00200020044A014642F82010401C3C
:1016C0000428FADB70470000D87B0020042802D2EF
:1016D000014A42F820107047D87B002006490020BC
:1016E00051F8202022B151F82020521E41F820202C
:1016F000401C0428F4DB7047D87B0020044A0029F2
:10170000D16901D0014300E08143D16170470000FD
:1017100000100240044A0029116901D0014300E091
:10172000814311617047000000100240044A002903
:10173000916901D0014300E081439161704700004D
:1017400000100240044A0029D16801D0014300E0A2
:101750008143D160704700000010024030B5204A3C
:101760005168204B11F00C0103D0042901D0082945
:1017700001D0036012E05168536801F470114FF01A
:10178000020413F4803F04EB914102D053689B03A1
:1017900001D5154B00E0134B5943016051680F23ED
:1017A00003EA1111114B5C5C0168E140416054682F
:1017B000072505EA14241C5D21FA04F484605468AA
:1017C00005EAD4241B5DD940C1605268032303EAB3
:1017D0009232064B1B1F9A5CB1FBF2F1016130BDE6
:1017E0000010024000127A0000093D008000002035
:1017F00004480168044A01F4E06111430160BFF349
:101800004F8FFEE70CED00E00400FA052DE9FC41E6
:101810001C4C0026CDE90064DDE9085704EB0014F8
:101820001AA064E9042140F21312A581A360A673F3
:10183000154901F0C5FE19A0616801F0C1FE23A0A1
:10184000616801F0BDFE2B48334637B1002201A983
:10185000006812F055FD28480FE06A4601A90068AB
:1018600012F0CEFD009838B124494FF08050086046
:10187000BFF34F8FBFF36F8F214801F0A1FEBDE88A
:10188000FC810000F06C00209455010865327072F4
:101890006F6D2025732025640D0A0000675F456584
:1018A00070726F6D4461746153617665202D20689C
:1018B000657864756D702075333245657053617657
:1018C000654164723A2564200D0A00007044617419
:1018D0006131202D2068657864756D702075333214
:1018E000456570536176654164723A2564200D0A3E
:1018F000000000000C0100207C64010804ED00E001
:10190000C46401080CB500222648009201920168C7
:1019100041F4803101604FF4A063016801F40031AB
:1019200001910099491C0091019911B900999942BE
:10193000F3D10168890333D5012101911A490A685D
:1019400042F010020A600A6822F003020A600A6884
:1019500042F002020A6041684160416841604168AA
:1019600041F480614160416821F47C11416041682B
:1019700041F4E8114160016841F080710160016843
:101980008901FCD5416821F003014160416841F0C3
:10199000020141604168C1F381010229FAD10CBD05
:1019A00001920CBD00100240002002407CB50D46A3
:1019B0000646114CD722114911A001F001FE3C212D
:1019C0002046FEF790FC2A4631462046FEF764FC8E
:1019D00084F83C503D212046FFF77AF984F83D0019
:1019E00000210120CDE9000140F632613E2322466C
:1019F000FFF70CFF7CBD0000907B00204B560108D8
:101A0000653270726F6D2025732025640D0A000009
:101A1000FFF7C4BD10B5094C03E0606A00B1804710
:101A2000283420780028F8D1FFF758FE0448406891
:101A3000002802D0BDE81040004710BDD453010873
:101A40002801002010B5044840F67861FEF74BFCF1
:101A5000BDE81040FFF7C2BD606D002010B5BF208B
:101A600080F31188BFF34F8FBFF36F8F12F060FECA
:101A700018B104494FF080500860002080F31188AD
:101A800010BD000004ED00E00F4810B5016841F002
:101A90000101016041680D4A1140416001680C4A32
:101AA00011400160016821F480210160416821F446
:101AB000FE0141604FF41F018160FFF723FF0549DC
:101AC0004FF00060086010BD001002400000FFF8F9
:101AD000FFFFF6FE08ED00E010B5FFF7B3FFFFF7DC
:101AE00015F9FFF707FD02490020087110BD00003D
:101AF0001400002070B501218D07284600F018F968
:101B000001280FD1084C2178491C2170207818B188
:101B1000FFF780FF002020702846BDE870400121BB
:101B200000F040B870BD0000280100207FB50D46D0
:101B3000044601210846FFF7E1FD4FF0804630469C
:101B400000F03EF8684600F055F9641EADF8044018
:101B50006D1E0024ADF80050ADF80640ADF802400F
:101B60006946304600F0F8F80121304600F017F8D9
:101B700001221146304600F0E7F80121304600F01E
:101B800014F81C208DF80C0001208DF80D008DF844
:101B90000E408DF80F0003A8FFF734FD7FBDC94349
:101BA00001827047C943018270470029018802D031
:101BB00041F0010101E021F00101018070470000C6
:101BC0004B4910B5884202D10121C41486E0B0F11E
:101BD000804F09D0474988420DD101210220FFF7EB
:101BE00099FD0021022064E001210846FFF792FDE3
:101BF000002101205DE04049884206D101210420F6
:101C0000FFF788FD0021042053E03C49884206D1BB
:101C100001210820FFF77EFD0021082049E0384916
:101C2000884206D101211020FFF774FD0021102009
:101C30003FE03449884206D101212020FFF76AFDA8
:101C40000021202035E03049884202D1012144148E
:101C500044E02E49884202D10121CC043EE02C49C7
:101C6000884202D101210C0538E02A49884202D17C
:101C700001214C0532E02849884206D1012140204B
:101C8000FFF748FD0021402013E02449884206D197
:101C900001218020FFF73EFD0021802009E020493E
:101CA00088420AD1841501212046FFF733FD002127
:101CB0002046BDE81040FFF72DBD1A49884202D1E9
:101CC00001210C040AE01849884202D101214C0488
:101CD00004E0164988420AD101218C042046FFF70E
:101CE00031FD2046BDE810400021FFF72BBD10BD9F
:101CF000002C01400004004000080040000C00409F
:101D0000001000400014004000340140004C01402D
:101D1000005001400054014000180040001C0040E9
:101D200000200040004001400044014000480140C4
:101D300002460020138A92890B4202EA010202D075
:101D4000002A00D001207047002A828901D00A436E
:101D500000E08A438281704730B502881B4C1C4DDD
:101D6000A0420DD0A8420BD0B0F1804F08D0194B43
:101D7000984205D0184B984202D0184B984203D194
:101D800022F070034A881A43154B984206D0154B2F
:101D9000984203D022F44073CA881A4302808A888A
:101DA00082850A880285A0420AD0A84208D00E4A3D
:101DB000904205D00D4A904202D00D4A904201D186
:101DC000097A01860121818230BD0000002C01408A
:101DD000003401400004004000080040000C0040B6
:101DE0000010004000140040004001400044014049
:101DF000004801404FF6FF71818000210180C180C1
:101E0000418001727047000010B50C4C40F2255122
:101E10000B4800F064F800280AD00948001D00882B
:101E2000C0B202E0012904D0283421780029F9D178
:101E300010BDA169BDE8104008470000D453010857
:101E40000038014010B50C4C40F225510B4800F011
:101E500046F800280AD00948001D0088C0B202E0F8
:101E6000022904D0283421780029F9D110BDA169B4
:101E7000BDE8104008470000D4530108004400406A
:101E800010B50C4C40F225510B4800F028F8002802
:101E90000AD00948001D0088C0B202E0032904D01E
:101EA000283421780029F9D110BDA169BDE810407E
:101EB00008470000D45301080048004000298189E8
:101EC00002D041F4005101E021F4005181817047BA
:101ED0000246002012880A4200D00120704770B5E7
:101EE00001F01F0501260024C1F3421306FA05F292
:101EF000012B0FD0022B0FD0838A4FEA11210088CB
:101F0000134206FA01F600EA060001D000B10124EE
:101F1000204670BD8389F0E7038AEEE710B5C1F370
:101F2000421301F01F040121A140012B07D0022B15
:101F300007D01430002A026805D00A4304E00C30B0
:101F4000F8E71030F6E78A43026010BD30B504466A
:101F5000008A85B00D464CF6FF710840E9880143C0
:101F60002182A0894EF6F3110840A9882A891143DD
:101F70006A8902431143A181A08A4FF6FF410840BC
:101F8000A9890143A1826846FFF7E8FB194884420A
:101F900001D1039800E00298A189090400EBC00177
:101FA00001EB0010296801D5490000E08900B0FB71
:101FB000F1F06422B0FBF2F109010B096FF0180592
:101FC0006B4300EB8300A3891D044FF0320306D559
:101FD00003EBC000B0FBF2F000F0070005E003EBFC
:101FE0000010B0FBF2F000F00F000843208105B0B4
:101FF00030BD000000380140C1F308018180704706
:1020000030B5054600782F4A411EC9B201EB810167
:1020100002EB81040128E06887B04FF001014ED047
:10202000FFF76CFB2089ADF8100003208DF812003B
:1020300018208DF8130004A96068FEF77DFF608901
:10204000ADF8100004208DF8130004A96068FEF7B5
:1020500073FF686800902889ADF804006889ADF8BE
:102060000600A889ADF80800288AADF80C00E889B8
:10207000ADF80A0069462068FFF768FF0121206873
:10208000FFF71CFFA869002817D0012240F2255154
:102090002068FFF743FFA86900280ED0207C8DF848
:1020A0001400607C8DF81500A07C8DF816000120CE
:1020B0008DF8170005A8FFF7A5FA07B030BDFFF7A8
:1020C00035FBAFE7EC4901082DE9F0410F460078F8
:1020D0000C4900EB800001EB800500241646143DFE
:1020E0000BE0395D2868FFF787FF40212868FFF77C
:1020F000EFFE0028F9D0641CA4B2B442F1D3BDE8CD
:10210000F0810000EC49010870B50D4600780A49DD
:1021100000EB800001EB8004143C09E02068FFF72D
:102120006BFF40212068FFF7D3FE0028F9D06D1C1B
:1021300029780029F2D170BDEC4901087FB50DF175
:10214000200C05469CE85100ADF808000091ADF860
:102150000420ADF80630ADF80C60ADF80A406946D1
:102160002846FFF7F3FE012240F225512846FFF7EB
:10217000D5FE01212846FFF7A1FE7FBD70B51C4D9D
:102180001A4C687BC0B9207F68B1012219A1A069EF
:10219000FEF7BBF818B118A0A16901F011FA2046AA
:1021A0000FF05AFC05E094F8010828B120460DF024
:1021B000FFFC204600F089F90220FFF775FA38B9D4
:1021C000687B28B100206873A26801210DA09047A8
:1021D0000DF096FB002807D005F062FD002803D023
:1021E000BDE87040FFF704BB70BD00005401002043
:1021F000140000204D000000636D643A25730D0A41
:102200000000000074696D65206F757420746F2084
:1022100073656E6420656469640D0A000A49CA8AA0
:1022200040F2AF439A4205D2CA8A8B691344521CCA
:10223000CA8218700548427B012008750AB1C8207F
:1022400000E00A20086170475401002014000020BB
:1022500010B50A4C00F06CF840F604012046FEF779
:1022600042F804F60400A06105482060054860605B
:102270000548A0600548E06010BD00005401002042
:102280008D3C0108713C0108813C0108CD22000809
:1022900010B50D4C2069002809D02069401E20612E
:1022A0002069002803D1207D10B10120207710BDC6
:1022B000207F0028FBD14FF49661A069FEF713F848
:1022C0000020E08210BD0000540100200FB430B5A2
:1022D000ADF2044D104C02E0012808D028342078DB
:1022E0000028F9D10DF2044D30BC5DF814FB00F06C
:1022F00029F80DF214434FF480616846DDF810248C
:1023000000F032F9054682B269462046FFF7DCFE4E
:1023100000F004F82846E5E7D453010803480023F9
:102320001A461946006811F0EBBF0000200100209A
:1023300010B5012011F07CFF0149086010BD0000BC
:102340002001002002484FF0FF31006812F004B96C
:102350002001002010B50A4C207F18B120460FF054
:102360007BFB06E094F80108002807D020460DF01A
:102370001FFC2046BDE8104000F0A7B810BD0000CB
:10238000080E00200A49CA8A40F2AF439A4205D299
:10239000CA8A8B691344521CCA8218700548427B52
:1023A000012008750AB1C82000E00A2008617047C2
:1023B000080E00201400002010B50C4C00F072F83C
:1023C00040F604012046FDF78EFF04F60400A061EC
:1023D00007482060074860600748A0600748E06041
:1023E000074800214173817310BD0000080E0020D2
:1023F000CD3C0108B13C0108C13C01084124000862
:102400001400002010B50D4C2069002809D0206967
:10241000401E20612069002803D1207D10B10120D9
:10242000207710BD207F0028FBD14FF49661A06972
:10243000FDF759FF0020E08210BD0000080E0020CB
:102440000FB430B5ADF2044D104C01E0022808D0B5
:1024500014F8280F0028F9D10DF2044D30BC5DF8B6
:1024600014FB00F029F80DF214434FF48061684624
:10247000DDF8102400F078F8054682B2694620465F
:10248000FFF722FE00F004F82846E5E7D4530108E0
:10249000034800231A461946406811F031BF000076
:1024A0002001002010B5012011F0C2FE0149486052
:1024B00010BD00002001002002484FF0FF314068AD
:1024C00012F04AB820010020704770B5002504467C
:1024D00005750561C58280694FF49661FDF703FFBC
:1024E000257770BD0FB4F0B5ADF2044D1D4C09E079
:1024F000207D30B1207840B101280CD002280DD0C9
:102500000EE0283420780028F2D100200DF2044D8E
:10251000F0BC5DF814FBFFF715FF01E0FFF7CCFFFF
:102520000DF21C434FF480616846DDF8182400F07A
:102530001BF8064600256F4605E079190122204662
:10254000FFF7C2FD6D1CB542F7DB2078012802D0F1
:10255000022803D004E0FFF7E1FE01E0FFF798FF57
:102560003046D3E7D45301082DE9FF4F8BB006A8BE
:102570000B9D9946174605EB010A0990ECE12528C9
:1025800004D05545FAD205F8010BE5E100200146DB
:102590008346461E069017F8010B422877D00DDCC3
:1025A000A0F12A02102A27D2DFE802F0F92626F845
:1025B000F726F6F5F5F5F5F5F5F5F5F5682867D0A4
:1025C0000EDC6228EAD006DC4C287CD058280ED0DD
:1025D0005E2811D156E1632876D064280CD133E00F
:1025E000732810D004DC6C28EFD0702804D1C4E02C
:1025F000752829D0782868D05545BFD205F8010B39
:102600000028BBD14EE159F8044B069808B9002EBA
:1026100013DB2046002E01DB05E0401C0178002979
:10262000FBD106E0401C017819B1311EA6F101066C
:10263000F8DC061BE7E0641C6D1C55459ED2207833
:10264000287000289AD0F6E7099C0A9404290BD038
:1026500064285FD059F8040B0A287ED2C249085C6E
:102660008DF81700641E85E009F1070121F00701CC
:102670006428F1E802C889460BD00A20BCEB0000B0
:1026800078F1000037D2B84810F80C00E8E701E113
:10269000FCE00020CDE9078CBCEB000078F10000E5
:1026A00004DA0022DCEB020C62EB08080A20BCEB27
:1026B000000078F1000009D2AB48641E10F80C004D
:1026C0008DF8170010E0E7E097E056E00A220023BB
:1026D00060464146FDF7AAFDA34B844688469A5CB6
:1026E00004F8012D0843F1D1DDE90701091E70F15D
:1026F00000002DDB3EE00A22002360464146FDF744
:1027000095FD994B844688469A5C04F8012D084350
:10271000F1D12FE059F8041B080000D548420A28DF
:1027200005D2914A641E105C8DF817000EE0DFF8A8
:1027300038C20A23B0FBF3F203FB1202B0FBF3F042
:102740001CF8022004F8012D0028F3D1002911DA29
:102750002D2004F8010D0DE0FFE7834A0A21B0FBAC
:10276000F1F301FB1303B0FBF1F0D35C04F8013D7E
:102770000028F4D10A98001B39E0099B04291C4663
:102780000ED059F8040B102828D27749641E085C33
:102790008DF817002AE048E044E055E06FE03DE0A6
:1027A00009F1070020F00702F2E802019146102229
:1027B000821A71F10002E8D3DFF8AC8100F00F0259
:1027C0004FEA111C18F8022004F8012D020942EA10
:1027D0000170614650EA0C02F0D107E0624900F056
:1027E0000F0200098A5C04F8012DF8D1181B002E95
:1027F00001DB864207DD064605E019F8041B6C463E
:102800008DF8001001260698B0427BDD801B1BF07E
:10281000060F4CD05FEA8B7166D474E0D9F80020C3
:1028200006921DE04BF001002EE03038069017F8BC
:10283000010BA0F13002092A3FF6AFAE069A520012
:1028400000EB82001044F0E717F8010B2A2805D0AE
:10285000A0F13002092AEFD8164609E0D9F8006045
:1028600009F1040997E606EB860200EB4206303ECA
:1028700017F8010BA0F13002092ADDD8F3E74BF07D
:10288000020001E04BF00400834684E6022901D0F7
:10289000022180E601217EE6032901D003217AE6A8
:1028A000042178E60B980FB0281ABDE8F08F90B19C
:1028B0005FEACB7101D0302100E02021554501D2E3
:1028C00005F8011B401EF9D105E0554503D214F867
:1028D000010B05F8010B301EA6F101063CDDF4E703
:1028E00014F8011B05F8011B311EA6F1010601DDDC
:1028F0005545F5D32022401E2ED355452CD205F840
:10290000012BF8E722E04108401A202201E005F8F7
:10291000012B0B1EA1F1010106DD5545F7D303E0A4
:1029200014F8011B05F8011B311EA6F1010604DD98
:102930005545F5D301E005F8012B401E0CD3554554
:102940000AD2F8E714F8010B05F8010B301EA6F1C6
:10295000010601DD5545F5D317F8010B00287FF47A
:102960000EAE28709EE7000063560108FEE70000E7
:1029700070B514460D4606464FF49D72054906A0F3
:1029800000F01EFE224629463046BDE8704001F0A8
:10299000C1BC0000A655010825732025640D0A005E
:1029A0000549C0EBC00001EBC001022202EBC000F0
:1029B0003822FFF7DDBF0000606D00200FB4084B28
:1029C00010B504A902AA039800F0E2F8044602A98F
:1029D000002000F074FC204610BC5DF814FB0000E1
:1029E000BF320008004870473801002002E008C8E4
:1029F000121F08C1002AFAD170477047002001E079
:102A000001C1121F002AFBD1704700002DE9FF5FB2
:102A100082B00021DDE90430020DDDF840B003434F
:102A200018D044F61050A2F2FF3242431514119808
:102A300001281FD0A5EB0B00401C5FEA000A4FF0F5
:102A400000064E4FDFF83891B046504615D5CAF112
:102A5000000413E0119801244AA3012801D16FEA70
:102A60000B010298119AC0E90031C0E9024206B098
:102A7000BDE8F09FCBF10000DFE704460021404AAB
:102A8000491842EB0450CDE9001012E0E00707D0EE
:102A900032463B4640464946FDF7C4FE80468946DD
:102AA00032463B4610461946FDF7BCFE06460F4629
:102AB0006410002CEAD1DDE90401DDE90023BAF15C
:102AC000000F06DAFDF7AEFE42464B46FDF7AAFEC2
:102AD00005E0FDF7FFFC42464B46FDF7FBFC0446D4
:102AE0000E460022284BFDF727FF03D84FF0FF309A
:102AF000014607E00022254B20463146FDF743FC06
:102B0000FDF702FF102409E0002C0ADB0A22002353
:102B1000FDF78CFB039B30321A55641E50EA01020C
:102B2000F2D1641C039AC4F111031444119A012ACE
:102B300003D0012208430DD10AE0084304D000204D
:102B40004FF0110B119072E7A3EB0B056D1E0DE01A
:102B50005B4504DD4FF0000205F1010504E003DAF6
:102B60004FF00002A5F10105002AECD0029811995E
:102B7000C0E90231C0E9004579E7000000001440D7
:102B80000000F03F300000000000F0430000E03F94
:102B90002DE9FF4F95B09B468946064600250FE27A
:102BA000252877D100242746F84A0121059400E022
:102BB000044316F8013F203B01FA03F01042F7D11D
:102BC00030782A2811D06FF02F033078A0F130022E
:102BD000092A16D8059A44F0020402EB820203EB9C
:102BE00042021044761C0590EFE759F8042B059239
:102BF000002A03DA504244F40054059044F00204E1
:102C0000761C30782E2816D116F8010F44F00404F3
:102C10002A280DD06FF02F023078A0F13003092B55
:102C200009D807EB870302EB4303C718761CF3E7C9
:102C300059F8047B761C30786C280FD006DC4C28C1
:102C400017D068280DD06A2814D104E0742810D059
:102C50007A280FD10DE044F400140AE044F4801403
:102C600001E044F440147278824202D104F58014E9
:102C7000761C761C307866280BD013DC582877D069
:102C800009DC002875D04528F6D04628F4D047281E
:102C90001AD19DE118E0632835D0642879D06528E1
:102CA00012D195E1702873D008DC6728F1D069282B
:102CB0006FD06E280DD06F2806D1B5E073282CD0C8
:102CC000752875D0782874D05A46179990476D1C8E
:102CD00075E1C4F30250022809D003280DD0D9F8B9
:102CE000001004280DD00D6009F1040967E1D9F83E
:102CF0000010EA17C1E90052F6E7D9F800100D807C
:102D0000F2E70D70F0E719F8041B8DF800100020B1
:102D10008DF80100EA46012003E059F804AB4FF0BA
:102D2000FF3061074FF0000102D40DE008F101010E
:102D30008846B9420FDA8045F8DB1AF808100029F6
:102D4000F4D108E008F1010188468142FADB1AF863
:102D500008100029F6D105985B46A0EB080721462C
:102D60003846179A00F094FA284400EB080507E06B
:102D70004DE029E10DE01AF8010B5A4617999047EA
:102D8000B8F10108F7D25B4621463846179A13E19D
:102D900042E00A220092C4F302524FF0000A022AD3
:102DA00008D059F804CB032A4FEAEC710AD00DE0A1
:102DB00029E02AE009F1070121F00702F2E802C147
:102DC000914609E00FFA8CFC4FEAEC71042A03D11A
:102DD0004FFA8CFC4FEAEC71002907DA0A46002111
:102DE000DCF1000C61EB02012D2202E0220504D58A
:102DF0002B228DF80420012203E0E20701D02022DB
:102E0000F7E7904659E00A2102E010220DE0102178
:102E10004FF0000A00910BE010224FF0000A44F03E
:102E200004040827009203E008224FF0000A0092F1
:102E3000C4F30252022A05D059F804CB0021032A18
:102E400008D009E009F1070121F00702F2E802C108
:102E5000914605E01FFA8CFC042A01D10CF0FF0C0E
:102E60004FF00008220728D5702806D0009B83F079
:102E7000100353EA0A0305D00EE040228DF8042027
:102E8000012208E05CEA010206D030228DF804201D
:102E90008DF8050002229046009B83F0080353EA58
:102EA0000A030AD15CEA010201D1620705D530228A
:102EB0008DF804204FF001087F1E582804D034A05C
:102EC00003900EA802900DE036A0F9E75346604645
:102ED000009AFDF7ABF984460398825C0298401E85
:102EE000029002705CEA0100F0D1029806A9081A6B
:102EF00000F1200A600702D524F4803400E00127A5
:102F0000574502DDA7EB0A0000E0002000EB0A01B4
:102F1000009005984144401A0590E00306D45B46B2
:102F20002146179A059800F0B3F90544002706E0FA
:102F300001A85A46C05D179990476D1C7F1C4745F4
:102F4000F6DBE0030CD55B462146179A059800F0A6
:102F50009FF9054404E030205A46179990476D1CAC
:102F60000099481E00900029F5DC08E002980299BB
:102F70005A460078491C0291179990476D1CBAF186
:102F80000001AAF1010AF1DC65E100000928010055
:102F900030313233343536373839616263646566CF
:102FA0000000000030313233343536373839414291
:102FB000434445460000000000F058F90544761CE3
:102FC000307800287FF4ECAD19B02846BDE8F08FCA
:102FD000620700D4062709F1070222F0070CFCE87B
:102FE0000223E14603F000485FEA080C02D00FF22A
:102FF000702C0DE05FEA045C02D50FF2682C07E04C
:103000005FEAC47C02D00FF2602C01E0AFF2700CDA
:103010004FF0FF3823F00043CDF850C065280CD0A6
:1030200006DC452809D046281DD047283DD13DE083
:10303000662818D067287ED138E00021112F01DBE7
:10304000112000E0781CCDE9000106A90EA8FFF7C9
:10305000DDFCDDE90F010E9A03910021009207F1DA
:10306000010A04914DE04FF000400097CDE90110B6
:1030700006A90EA8FFF7CAFCDDE90F0203920E9B1A
:1030800011990022DDF80CA00093049211B9791C6B
:1030900000EB010AB7EB0A0004D4C0F1FF3007F1DE
:1030A000010A0490AAEB0700019044E0012F00DA26
:1030B00001270021112F01DD112000E03846CDE964
:1030C000000106A90EA8FFF7A1FCDDE90F010E9A89
:1030D0000391002104910092BA4621070CD4039970
:1030E000514500DA8A46BAF1010F05DD009AAAF1CE
:1030F0000101515C302908D0B84202DA10F1040F06
:1031000006DA0121CDE9011015E0AAF10101E9E794
:10311000002805DC049901440491AAEB000102E0B7
:10312000411C514500DD8A460499401A401C01901B
:103130004FF000400290200704D40198504501DB75
:10314000CDF8048000208DF84F0002980DF14F0754
:10315000B0F1004F25D02B200E9002984FF00208BE
:1031600000280CDA404202902D200E9007E00A2140
:103170000298FDF745F83031029007F8011DB8F1CB
:103180000001A8F10108F2DC02980028EFD1791EB5
:103190000E980870307800F0200040F0450007F8E5
:1031A000020D12A8C01B00F107081498007800B1A6
:1031B000012000EB0A01019801EBE0710598414400
:1031C000401A401E0590E00306D45B462146179A3C
:1031D000059800F05DF805441498007818B15A4637
:1031E000179990476D1CE00324D55B462146179A3A
:1031F000059800F04DF805441CE00498002807DB12
:10320000DDE90301884203DD0098405C179901E085
:10321000179930205A469047049805F10105401C43
:1032200004900198401E019004D12E205A4617990F
:1032300090476D1CBAF10001AAF1010ADDDC05E03E
:1032400017F8010B5A46179990476D1CB8F1000109
:10325000A8F10108F4DC5B462146179A0598ABE615
:103260002D0000002B000000200000002DE9F0419F
:10327000044600251E461746880404D405E0394656
:103280002020B0476D1C641EF9D52846BDE8F081AA
:103290002DE9F041044600251E469046C80301D59D
:1032A000302700E02027880404D505E04146384651
:1032B000B0476D1C641EF9D52846BDE8F0810A6848
:1032C000531C0B601070704710B50024FDF7B8FC5C
:1032D000204610BD10B50024FDF7B2FC204610BDFD
:1032E00010B50024FDF7ACFC204610BD10B500243D
:1032F000FDF7A6FC204610BD10B50024FDF7A0FC8C
:10330000204610BD10B50024FDF79AFC204610BDE4
:1033100010B50024FDF794FC204610BD10B5002424
:10332000FDF78EFC204610BD10B50024FDF788FC8B
:10333000204610BD10B50024FDF782FC204610BDCC
:1033400010B50024FDF77CFC204610BD10B500240C
:10335000FDF776FC204610BD10B50024FDF770FC8B
:10336000204610BD10B50024FDF76AFC204610BDB4
:1033700010B50024FDF764FC204610BD10B50024F4
:10338000FDF75EFC204610BD10B50024FDF758FC8B
:10339000204610BD10B50024FDF752FC204610BD9C
:1033A00010B50024FDF74CFC204610BD10B50024DC
:1033B000FDF746FC204610BD10B50024FDF740FC8B
:1033C000204610BD10B50024FDF73AFC204610BD84
:1033D00010B50024FDF734FC204610BD10B50024C4
:1033E000FDF72EFC204610BD10B50024FDF728FC8B
:1033F000204610BD10B50024FDF722FC204610BD6C
:1034000010B50024FDF71CFC204610BD10B50024AB
:10341000FDF716FC204610BD10B50024FDF710FC8A
:10342000204610BD10B50024FDF70AFC204610BD53
:1034300010B50024FDF704FC204610BD10B5002493
:10344000FDF7FEFB204610BD10B50024FDF7F8FB8C
:10345000204610BD10B50024FDF7F2FB204610BD3C
:1034600010B50024FDF7ECFB204610BD10B500247C
:10347000FDF7E6FB204610BD10B50024FDF7E0FB8C
:10348000204610BD10B50024FDF7DAFB204610BD24
:1034900010B50024FDF7D4FB204610BD10B5002464
:1034A000FDF7CEFB204610BD10B50024FDF7C8FB8C
:1034B000204610BD10B50024FDF7C2FB204610BD0C
:1034C00010B50024FDF7BCFB204610BD10B500244C
:1034D000FDF7B6FB204610BD10B50024FDF7B0FB8C
:1034E000204610BD10B50024FDF7AAFB204610BDF4
:1034F00010B50024FDF7A4FB204610BD10B5002434
:10350000FDF79EFB204610BD10B50024FDF798FB8B
:10351000204610BD10B50024FDF792FB204610BDDB
:1035200010B50024FDF78CFB204610BD10B50B4CE8
:1035300040F233220A490BA000F042F80EF060FC82
:10354000D4F8700E002807D0B4F8740E002803D009
:10355000BDE81040FEF75CBA10BD0000606D0020B1
:10356000DF550108653270726F6D202D206170701B
:103570005F5573657244617461546F44656661752B
:103580006C742025732025640D0A0000DBB2FDF762
:1035900097BE000070B5094D0C262C4606E0601B56
:1035A00090FBF6F0C0B204F093F80C3420680028C9
:1035B000F5D1BDE87040FDF76DBF0000445501082E
:1035C0000FB4F0B5ADF2044D1D4C09E0207D30B1D3
:1035D000207840B101280CD002280DD00EE028340C
:1035E00020780028F2D100200DF2044DF0BC5DF8E7
:1035F00014FBFEF7A7FE01E0FEF75EFF0DF21C4391
:103600004FF480616846DDF81824FEF7ADFF0646EA
:1036100000256F4605E0791901222046FEF754FD8A
:103620006D1CB542F7DB2078012802D0022803D0B8
:1036300004E0FEF773FE01E0FEF72AFF3046D3E711
:10364000D45301082DE9F04F8FB0FF4D4FF0000A21
:10365000DFF8F8936C460126574638212046FCF7E0
:1036600042FEBAF1330F7DD2DFE80AF07C1A7C3CCF
:103670005F837C7CA5C77CFDFCFBFAF9F8F7F6F5C7
:10368000F4F3F2F1F0EFEEEDEC7C7C7C7CECEBEA19
:10369000E9E8E7E6E5E4E3E2E1E0DFDEDDDCDB00EC
:1036A00005F138080020CC460CEB400122684B782D
:1036B00006FA03F10A4300F1100106FA01F31A4376
:1036C00022601CF81010401C04EB4101C0B28F8036
:1036D0000928E9D3382221464046FCF7DDFD0122C6
:1036E000114620E005F1A8080020CC460CEB400173
:1036F00022684B7806FA03F10A4300F1100106FA3A
:1037000001F31A4322601CF81010401C04EB410125
:10371000C0B28F800928E9D3382221464046FCF701
:10372000BBFD012203214046FEE305F1E008002035
:10373000CC460CEB400122684B7806FA03F10A43B1
:1037400000F1100106FA01F31A4322601CF8101070
:10375000401C04EB4101C0B28F800928E9D3382214
:10376000214600E0FEE34046FCF796FD01220421DD
:10377000D9E705F58C780020CC460CEB4001226897
:103780004B7806FA03F10A4300F1100106FA01F33F
:103790001A4322601CF81010401C04EB4101C0B217
:1037A0008F800928E9D3382221464046FCF774FD72
:1037B00001220521B7E705F5E0780020CC460CEBA7
:1037C000400122684B7806FA03F10A4300F1100128
:1037D00006FA01F31A4322601CF81010401C04EB97
:1037E0004101C0B28F800928E9D3382221464046E2
:1037F000FCF752FD0122082195E705F5FC78002031
:10380000494601EB4002236892F801C006FA0CF227
:10381000134300F1100206FA02FC43EA0C03236092
:1038200022E0F0E3F0E3F0E3F0E3F0E3F0E3F0E3D1
:10383000D1E3B3E3A9E384E35FE33CE319E3F4E218
:10384000CFE2ACE295E280E269E252E22FE2FCE1F3
:10385000CBE19CE178E152E12DE103E1D4E0A6E087
:1038600083E064E03FE015E011F8102004EB420231
:10387000978011F81020401C04EB4202C0B2D7829E
:103880000928BED3382221464046FCF705FD012217
:10389000092148E705F51A780020494601EB400365
:1038A000226893F801C006FA0CF31A4300F11003E2
:1038B00006FA03FC42EA0C02226011F8102004EB25
:1038C0004202968011F81020401C04EB4202C0B264
:1038D000D7820928E2D3382221464046FCF7DCFC97
:1038E00001220B211FE705F5287800204B4603EB4A
:1038F0004002216892F801C006FA0CF2114300F16F
:10390000100206FA02FC41EA0C01216013F81010C3
:10391000401C04EB4101C0B28E800928E7D3382255
:1039200021464046FCF7B8FC01220C21FBE605F5D8
:10393000367B0020CC464FF4FA780CEB400122682D
:103940004B7806FA03F10A4300F1100106FA01F37D
:103950001A4322601CF81010401C04EB4101C0B255
:10396000A1F804800928E8D3E6E005F544780020B2
:10397000CC460CEB400122684B7806FA03F10A436F
:1039800000F1100106FA01F31A4322601CF810102E
:10399000401C04EB4101C0B28F800928E9D33822D2
:1039A00021464046FCF778FC01220E21BBE605F5D6
:1039B000527B00204FF0D008494601EB40022368BB
:1039C00092F801C006FA0CF2134300F1100206FA55
:1039D00002FC43EA0C03236011F8102004EB4202BE
:1039E000A2F8048011F81020401C04EB4202C0B27F
:1039F000D7820928E1D3382221465846FCF74CFCEF
:103A000001220F21584683E305F5607800204946DE
:103A100001EB4002236892F801C006FA0CF213434E
:103A200000F1100206FA02FC43EA0C03236011F8CD
:103A3000102004EB4202978011F81020401C04EB88
:103A40004202C0B2D78203E0606D0020284A01081C
:103A50000928DDD3382221464046FCF71DFC01220F
:103A6000102160E605F56E780020494601EB400321
:103A7000226893F801C006FA0CF31A4300F1100310
:103A800006FA03FC42EA0C02226011F8102004EB53
:103A90004202968011F81020401C04EB4202C0B292
:103AA000D7820928E2D3382221464046FCF7F4FBAE
:103AB0000122112137E605F57C7800204B4603EB07
:103AC0004002216892F801C006FA0CF2114300F19D
:103AD000100206FA02FC41EA0C01216013F81010F2
:103AE000401C04EB4101C0B28E800928E7D3382284
:103AF00021464046FCF7D0FB0122122113E605F5D2
:103B0000367B0020CC464FF4FA780CEB400122685B
:103B10004B7806FA03F10A4300F1100106FA01F3AB
:103B20001A4322601CF81010401C04EB4101C0B283
:103B3000A1F804800928E8D3382221465846FCF72A
:103B4000ABFB01220D215DE705F58C6B05F5366CAD
:103B50000020C84608EB400122684B7806FA03F1C2
:103B60000A4300F1100106FA01F300EB80011A4349
:103B7000401C2260C0B20CF821700928EAD3382218
:103B800021465846FCF788FB012214213AE705F547
:103B9000936805F61443002009EB4001226891F870
:103BA00001C006FA0CF10A4300F1100106FA01FC0B
:103BB00042EA0C02226000EB800200214FEA820CF4
:103BC0000CEB4102491C9F541A44C9B257700A2990
:103BD000F6D3401CC0B20928DED338222146404625
:103BE000FCF75AFB012215219DE505F59A6B05F6B8
:103BF000C84300204FF0470809EB4001226891F8C4
:103C000001C006FA0CF10A4300F1100C06FA0CF19F
:103C10000A43226000EB800200214FEA820C0CEB89
:103C20004102491C9F541A44C9B282F801800A29F2
:103C3000F5D3401CC0B20928DED3382221465846AD
:103C4000FCF72AFB01221621DCE605F5A16B00201A
:103C5000C84608EB40022168537806FA03F2114384
:103C600000F1100306FA03F211432160002104EB76
:103C7000400206FA01F3B2F804C0491C4CEA030CF6
:103C8000A2F804C0B2F816C0C9B22CEA030CA2F81C
:103C900016C00A29EDD3401CC0B20928D9D3382256
:103CA00021465846FCF7F8FA01221721AAE605F545
:103CB000A8680020CC460CEB400122684B7806FA3D
:103CC00003F10A4300F1100106FA01F31A432260DE
:103CD0001CF81010401C04EB4101C0B28F80092871
:103CE000E9D3382221464046FCF7D6FA01221821B2
:103CF00019E52068A68040F0020040F00110E7823C
:103D000040F40010206005F5AF68268266843822F2
:103D100021464046FCF7C0FA0122192103E520683C
:103D2000A78040F0020040F00110E78240F400104C
:103D3000206005F5B6682782668438222146404611
:103D4000FCF7AAFA01221A21EDE42068D02140F004
:103D50000200A180E78240F0011084F8287040F44E
:103D6000001020602182678405F5E76884F82E60E2
:103D70000DE02068A68040F0020040F00110E782CC
:103D800040F400102060268205F5E768668438223A
:103D900021464046FCF780FA01222121C3E405F5C3
:103DA000EE680020CC460CEB400122684B7806FA06
:103DB00003F10A4300F1100106FA01F31A432260ED
:103DC0001CF81010401C04EB4101C0B28F80092880
:103DD000E9D3382221464046FCF75EFA012222212F
:103DE000A1E405F5F56800204B4603EB400221688D
:103DF00092F801C006FA0CF2114300F1100206FA23
:103E000002FC41EA0C01216013F81010401C04EB85
:103E10004101C0B28E800928E7D3382221464046AE
:103E2000FCF73AFA012223217DE405F5FC68002025
:103E30004B4603EB4002216892F801C006FA0CF2EF
:103E4000114300F1100206FA02FC41EA0C01216064
:103E500013F81010401C04EB4101C0B28E800928F9
:103E6000E7D3382221464046FCF716FA01222421E6
:103E700059E405F618080020CC460CEB40012268F6
:103E80004B7806FA03F10A4300F1100106FA01F338
:103E90001A4322601CF81010401C04EB4101C0B210
:103EA0008F800928E9D3382221464046FCF7F4F9EF
:103EB0000122252137E405F505680020CC460CEBEE
:103EC000400122684B7806FA03F10A4300F1100121
:103ED00006FA01F31A4322601CF81010401C04EB90
:103EE0004101C0B28F800928E9D3382221464046DB
:103EF000FCF7D2F90122262115E405F688080020F6
:103F0000CC460CEB400122684B7806FA03F10A43D9
:103F100000F1100106FA01F31A4322601CF8101098
:103F200004EB41018F8000E0F2E0401CC0B20928A0
:103F3000E7D3382221464046FCF7AEF9012227217B
:103F400016E405F50C680020CC460CEB4001226815
:103F50004B7806FA03F10A4300F1100106FA01F367
:103F60001A4300E0D6E022601CF81010401C04EB5D
:103F70004101C0B28F800928E7D33822214640464C
:103F8000FCF78AF90122282114E4206805F513685A
:103F900040F0020040F48030142107E0206805F56D
:103FA000136840F0020040F480306021A180E78275
:103FB00040F0010084F8287040F400102060218255
:103FC000678484F82E60382221464046FCF764F965
:103FD00001222A2110E4206842F2107140F0020010
:103FE000A18040F00110E78240F40010206021829F
:103FF00005F668186684382221464046FCF74CF9DD
:1040000001222B2145E4DCE0B8E08EE048E031E01D
:1040100018E0FFE720684FF4FA7140F00200A18039
:1040200040F00110E78240F400102060218205F585
:104030001A686684382221464046FCF72DF9012291
:104040002C2126E4206847F2305140F00200A18084
:1040500040F00110E78240F400102060218205F654
:10406000D8186684382221464046FCF715F901220B
:104070002D210EE42068A78040F0020040F00110DE
:10408000E78240F40010206005F5216827826684ED
:10409000382221464046FCF7FFF801222E2121E478
:1040A00005F6482000220E90002106FA02FB04EBE0
:1040B0004200D4F800C001F1100806FA08F34CEAF7
:1040C0000B0C4CEA030CC4F800C08A42838806FA41
:1040D00001FC06D143EA0C038380C38A23EA0C0364
:1040E00005E023EA0C038380C38A43EA0C03491CDE
:1040F000C9B2C3820929DCD3521CD2B2092AD3D354
:10410000382221460E98FCF7C7F801222F210E987D
:104110000EF0B6F90AF1010000F0FF0ABAF1320F11
:104120007FF69BAA0FB0BDE8F08F2C4905F52868F3
:10413000002001EB4003226893F801C006FA0CF35B
:104140001A4300F1100306FA03FC42EA0C02226053
:1041500011F8102004EB4202968011F81020401C48
:1041600004EB4202C0B2D7820928E2D338222146AA
:104170004046FCF791F80122302117E4DFF85CC0DB
:1041800005F6B82800200CEB400122684B7806FAAF
:1041900003F10A4300F1100106FA01F31A43226009
:1041A0001CF81010401C04EB4101C0B28F8009289C
:1041B000E9D3382221464046FCF76EF8012231212E
:1041C0004FE40420A08005F52F68E78238222146BD
:1041D0004046FCF761F80122322142E43A4A0108E4
:1041E0000548016841F0807101600448016841F0B0
:1041F0000101016070470000FCED00E0001000E0EC
:1042000010B504460FF0ECFE012806D04FF47A708A
:104210006043BDE8104000F005B82046BDE81040FE
:104220000FF0F4BD0B4910B54A680B4B0B4C1B68E3
:10423000B3FBF4F300FB0320904203D94A688242A7
:10424000FCD310BD4A688242FCD84A688242FCD343
:1042500010BD0000001000E00000002040420F00F0
:1042600024214FF4FA60FDF761BC000010B5064C44
:1042700006E0206A00B180472046FDF7C1FE2834E1
:1042800020780028F5D110BDD45301082DE9FC4158
:10429000154E0F46044615464FF0FF31306810F0BA
:1042A0005BF94FF480518C4202D26019884204D3EA
:1042B000BDE8FC410DA0FEF715B9022000EAD4309C
:1042C00040F0A0010122A8B2CDE90002A2B23B4613
:1042D000002003F071FA306802B00023BDE8F0411D
:1042E0001A46194610F00CB84C6C00204545505247
:1042F0004F4D204F50455241544520414444524572
:104300005353204F5554204F462052414E4745218C
:104310000D0A00002DE9F74FDFF8ECB00027044646
:1043200082B090463E46791EDBF8000010F014F98A
:104330004FF480518C4203D204EB0800884205D32D
:1043400005B032A0BDE8F04FFEF7CCB804F007008E
:10435000C0F10805A8450AD9A8EB0500082804D330
:10436000C0F3CF06714200EBC100C7B201E008F014
:10437000FF054FF0020A4FF001090AEAD430CDE9F7
:10438000005940F0A001A2B20020039B03F0B8FA4C
:1043900041F28830FFF746FF03982C4400EB0508F4
:1043A000BEB1002513E00822CDE900290AEAD43085
:1043B00040F0A001A2B24346002003F0A1FA05207C
:1043C000FFF71EFF6D1C08F10808ADB20834B542B6
:1043D000E9D377B10AEAD430CDE9007940F0A00101
:1043E000A2B24346002003F08BFA41F28830FFF777
:1043F00019FFDBF8000005B00023BDE8F04F1A46B6
:1044000019460FF07DBF00004C6C0020454550520E
:104410004F4D204F50455241544520414444524550
:104420005353204F5554204F462052414E4745216B
:104430000D0A000030B5B1B00546A0216846FBF773
:1044400052FF202128A8FBF74EFF6C4615A219A1A8
:104450002046FEF7B3FA2046FBF750FF0444202124
:1044600028A8FBF740FF287913A142B228A8FEF73D
:10447000A5FA28AA0FA12046FEF7A0FA28A8FBF764
:104480003DFF20440DA20EA1401CFEF797FA69469D
:104490000CA0FEF719F869460AA0FFF791F831B0B1
:1044A00030BD0000616C6C417564696F4F7574704C
:1044B0007574000025732C0025640000454F4600EC
:1044C0002573000025730D0A000000002DE9F04758
:1044D000B0B00746A0216846FBF705FF202128A8B9
:1044E000FBF701FF6C464FF0000966A268A1204669
:1044F000FEF764FA2046FBF701FF044400260BE0B8
:10450000B9F1000F08D05FA261A12046FEF756FA6C
:104510002046FBF7F3FE0444002506F11008386836
:1045200020FA08F0C0077CD007EB460A4FF00109DB
:10453000BAF80400E840C00738D0202128A8FBF7CB
:10454000D2FE324653A128A8FEF738FA28AA50A175
:104550002046FEF733FA28A8FBF7D0FE04442021BA
:1045600028A8641CFBF7BFFE2A464AA128A8FEF72C
:1045700025FA28AA46A12046FEF720FA28A8FBF72C
:10458000BDFE0444202128A8641CFBF7ACFE0022D9
:1045900040A128A8FEF712FA28AA3DA12046FEF75E
:1045A0000DFA28A8FBF7AAFE0444641CBAF816000A
:1045B000E840C0073AD0202128A8FBF794FE3246F5
:1045C00034A128A8FEF7FAF928AA31A12046FEF75F
:1045D000F5F928A8FBF792FE0444202128A8641CC2
:1045E000FBF781FE2A462BA128A8FEF7E7F928AAA7
:1045F00027A12046FEF7E2F928A8FBF77FFE044436
:10460000202128A8641CFBF76EFE012221A128A806
:10461000FEF7D4F928AA1EA12046FEF7CFF928A854
:1046200000E003E0FBF76AFE0444641C6D1CEDB27D
:104630000A2DFFF474AF386820FA08F0C0070DD0D7
:1046400015A216A12046FEF7B9F9694614A0FEF797
:10465000B7FFA0216846FBF746FE6C46761CF6B213
:10466000092EFFF44DAFB9F1000F08D10AA20BA13A
:104670002046FEF7A3F9694609A0FEF7A1FF30B076
:10468000BDE8F087496E45514374726C000000002C
:1046900025732C0025640000454F4600257300005B
:1046A00025730D0A000000002DE9F047B0B08246E6
:1046B0004D4FA0216846FBF716FE202128A8FBF7E6
:1046C00012FE6C464FF0000848A24BA12046FEF7B0
:1046D00075F92046FBF712FE051900260BE0B8F12C
:1046E000000F08D041A244A12846FEF767F92846EA
:1046F000FBF704FE0544DAF8000006F11001C8409B
:10470000C00759D006EB86004FF0010800244FEA9D
:104710008009202128A8FBF7E6FD324637A128A80A
:10472000FEF74CF928AA34A12846FEF747F928A835
:10473000FBF7E4FD0544202128A86D1CFBF7D3FD01
:1047400022462EA128A8FEF739F928AA2AA1284630
:10475000FEF734F928A8FBF7D1FD0544202128A84D
:104760006D1CFBF7C0FD09EB4400C1193A5C4B78A6
:1047700023A128A8FEF722F928AA1FA12846FEF7A0
:104780001DF928A8FBF7BAFD0544641CE4B26D1CB2
:104790000A2CBED31CA21DA12846FEF70FF96946BC
:1047A0001BA0FDF791FE694619A0FEF709FFA021A5
:1047B0006846FBF798FD6D46761CF6B2092E8ED33F
:1047C000B8F1000F0CD110A210A12846FEF7F6F8A0
:1047D00069460FA0FDF778FE69460DA0FEF7F0FED2
:1047E00030B0BDE8F087000074790020496E455173
:1047F0004761696E0000000025732C0025640000ED
:1048000025642E2564000000454F460025730000F6
:1048100025730D0A000000002DE9F047B0B0824674
:104820004D4FA0216846FBF75EFD202128A8FBF72D
:104830005AFD6C464FF0000848A24DA12046FEF7F5
:10484000BDF82046FBF75AFD051900260BE0B8F12C
:10485000000F08D041A246A12846FEF7AFF828462F
:10486000FBF74CFD0544DAF8000006F11001C840E2
:10487000C00759D006EB86004FF0010800244FEA2C
:104880008009202128A8FBF72EFD324639A128A84F
:10489000FEF794F828AA36A12846FEF78FF828A834
:1048A000FBF72CFD0544202128A86D1CFBF71BFD00
:1048B000224630A128A8FEF781F828AA2CA1284674
:1048C000FEF77CF828A8FBF719FD0544202128A84D
:1048D0006D1CFBF708FD09EB4400C1193A5C4B78ED
:1048E00025A128A8FEF76AF828AA21A12846FEF7E4
:1048F00065F828A8FBF702FD0544641CE4B26D1CB2
:104900000A2CBED31EA21FA12846FEF757F86946FF
:104910001DA0FDF7D9FD69461BA0FEF751FEA021A1
:104920006846FBF7E0FC6D46761CF6B2092E8ED386
:10493000B8F1000F0CD112A212A12846FEF73EF8E2
:10494000694611A0FDF7C0FD69460FA0FEF738FECD
:1049500030B0BDE8F0870000287A0020496E45514C
:104960005175616C697479466163746F72000000FF
:1049700025732C002564000025642E2564000000AA
:10498000454F46002573000025730D0A0000000006
:104990002DE9F047B0B08246DFF82891A0216846A3
:1049A000FBF7A1FC202128A8FBF79DFC6C46002703
:1049B00045A248A12046FEF701F82046FBF79EFCE1
:1049C0000519002609E047B13FA242A12846FDF79C
:1049D000F5FF2846FBF792FC0544DAF8000006F1E3
:1049E0001001C840C00757D0012706EB86000024FD
:1049F0004FEA8008202128A8FBF775FC324636A133
:104A000028A8FDF7DBFF28AA32A12846FDF7D6FF2C
:104A100028A8FBF773FC0544202128A86D1CFBF790
:104A200062FC22462CA128A8FDF7C8FF28AA29A1CC
:104A30002846FDF7C3FF28A8FBF760FC05442021AA
:104A400028A86D1CFBF74FFC08EB440128A839F897
:104A5000112021A1FDF7B2FF28AA1EA12846FDF7CB
:104A6000ADFF28A8FBF74AFC0544641CE4B26D1CAA
:104A70000A2CBFD319A21AA12846FDF79FFF694649
:104A800018A0FDF721FD694616A0FEF799FDA021AB
:104A90006846FBF728FC6D46761CF6B2092E92D3C9
:104AA000002F0CD10DA20EA12846FDF787FF694605
:104AB0000CA0FDF709FD69460AA0FEF781FD30B0A4
:104AC000BDE8F087C0780020496E45515479706583
:104AD0000000000025732C0025640000454F4600AF
:104AE0002573000025730D0A0000000070B5B0B0FA
:104AF0000646A0216846FBF7F6FB202128A8FBF715
:104B0000F2FB6C4627A22BA12046FDF757FF20465B
:104B1000FBF7F4FB05190024306804F11001C840CC
:104B2000C0072BD0202128A8FBF7DDFB224622A1BD
:104B300028A8FDF743FF28AA1EA12846FDF73EFF3F
:104B400028A8FBF7DBFB0544202128A86D1CFBF7F8
:104B5000CAFB1A4818A110F8140006EB40000079AF
:104B600042B228A8FDF72AFF28AA12A12846FDF77D
:104B700025FF28A8FBF7C2FB05446D1C641CE4B2AA
:104B8000092CC9D30EA20FA12846FDF717FF6946CD
:104B90000DA0FDF799FC69460BA0FEF711FD30B0A2
:104BA00070BD0000496E4175746F4761696E437452
:104BB000726C000025732C0025640000284A01084F
:104BC000454F46002573000025730D0A00000000C4
:104BD00070B5B0B00646A0216846FBF784FB2021E3
:104BE00028A8FBF780FB6C4627A22BA12046FDF7E7
:104BF000E5FE2046FBF782FB05190024306804F12E
:104C00001001C840C0072CD0202128A8FBF76BFB5F
:104C1000224622A128A8FDF7D1FE28AA1EA12846D7
:104C2000FDF7CCFE28A8FBF769FB0544202128A846
:104C30006D1CFBF758FB1A481AA110F8140006EB7C
:104C40004000C38A007942B228A8FDF7B7FE28AA1F
:104C500011A12846FDF7B2FE28A8FBF74FFB05443B
:104C60006D1C641CE4B2092CC8D310A210A1284604
:104C7000FDF7A4FE69460FA0FDF726FC69460DA0CE
:104C8000FEF79EFC30B070BD496E4175746F476190
:104C9000696E526174696F0025732C0025640000F1
:104CA000284A010825642E2564000000454F46006F
:104CB0002573000025730D0A0000000070B5B0B028
:104CC0000646A0216846FBF70EFB202128A8FBF72B
:104CD0000AFB6C4627A22DA12046FDF76FFE204659
:104CE000FBF70CFB05190024306804F11001C840E3
:104CF000C0072BD0202128A8FBF7F5FA224624A1D3
:104D000028A8FDF75BFE28AA20A12846FDF756FE3D
:104D100028A8FBF7F3FA0544202128A86D1CFBF70F
:104D2000E2FA1C481AA110F8140006EB40000079C2
:104D300042B228A8FDF742FE28AA14A12846FDF792
:104D40003DFE28A8FBF7DAFA05446D1C641CE4B2AA
:104D5000092CC9D310A211A12846FDF72FFE6946E0
:104D60000FA0FDF7B1FB69460DA0FEF729FC30B09E
:104D700070BD0000496E4175746F4761696E526580
:104D80006C6561736554696D6500000025732C00C6
:104D900025640000284A0108454F4600257300009D
:104DA00025730D0A0000000070B5B0B00646A021C2
:104DB0006846FBF798FA202128A8FBF794FA6C467E
:104DC00027A22CA12046FDF7F9FD2046FBF796FA15
:104DD00005190024306804F11001C840C0072BD029
:104DE000202128A8FBF77FFA224623A128A8FDF757
:104DF000E5FD28AA1FA12846FDF7E0FD28A8FBF73E
:104E00007DFA0544202128A86D1CFBF76CFA1B488D
:104E100019A110F8140006EB4000007942B228A84E
:104E2000FDF7CCFD28AA13A12846FDF7C7FD28A849
:104E3000FBF764FA05446D1C641CE4B2092CC9D369
:104E40000FA210A12846FDF7B9FD69460EA0FDF797
:104E50003BFB69460CA0FEF7B3FB30B070BD000011
:104E6000496E4175746F4761696E53746172745411
:104E7000696D650025732C0025640000284A01082F
:104E8000454F46002573000025730D0A0000000001
:104E900070B5B0B00646A0216846FBF724FA202181
:104EA00028A8FBF720FA6C4627A22EA12046FDF782
:104EB00085FD2046FBF722FA05190024306804F12D
:104EC0001001C840C0072CD0202128A8FBF70BFAFE
:104ED000224625A128A8FDF771FD28AA21A1284670
:104EE000FDF76CFD28A8FBF709FA0544202128A846
:104EF0006D1CFBF7F8F91D481DA110F8140006EB16
:104F00004000C38A007942B228A8FDF757FD28AABD
:104F100014A12846FDF752FD28A8FBF7EFF9054438
:104F20006D1C641CE4B2092CC8D313A213A128463B
:104F3000FDF744FD694612A0FDF7C6FA694610A0C8
:104F4000FEF73EFB30B070BD496E4175746F47612E
:104F5000696E5461726765745468726573686F6CCA
:104F60006400000025732C0025640000284A010815
:104F700025642E2564000000454F4600257300007F
:104F800025730D0A0000000070B5B0B00646A021E0
:104F90006846FBF7A8F9202128A8FBF7A4F96C467E
:104FA00027A22CA12046FDF709FD2046FBF7A6F914
:104FB00005190024306804F11001C840C0072CD046
:104FC000202128A8FBF78FF9224623A128A8FDF766
:104FD000F5FC28AA1FA12846FDF7F0FC28A8FBF73E
:104FE0008DF90544202128A86D1CFBF77CF91B488E
:104FF0001BA110F8140006EB4000C38A007942B2EE
:1050000028A8FDF7DBFC28AA12A12846FDF7D6FC4C
:1050100028A8FBF773F905446D1C641CE4B2092C45
:10502000C8D311A211A12846FDF7C8FC694610A0FB
:10503000FDF74AFA69460EA0FEF7C2FA30B070BD1D
:10504000496E4175746F4761696E54687265736823
:105050006F6C640025732C0025640000284A010849
:1050600025642E2564000000454F4600257300008E
:1050700025730D0A0000000070B5B0B00646A021EF
:105080006846FBF730F9202128A8FBF72CF96C467D
:1050900027A22CA12046FDF791FC2046FBF72EF914
:1050A00005190024306804F11001C840C0072BD056
:1050B000202128A8FBF717F9224623A128A8FDF7ED
:1050C0007DFC28AA1FA12846FDF778FC28A8FBF73D
:1050D00015F90544202128A86D1CFBF704F91B488D
:1050E00019A110F8140006EB4000007942B228A87C
:1050F000FDF764FC28AA13A12846FDF75FFC28A849
:10510000FBF7FCF805446D1C641CE4B2092CC9D300
:105110000FA210A12846FDF751FC69460EA0FDF72D
:10512000D3F969460CA0FEF74BFA30B070BD000011
:10513000496E4261636B67726F756E64496E70751C
:105140007400000025732C0025640000284A010823
:10515000454F46002573000025730D0A000000002E
:1051600070B5B0B00646A0216846FBF7BCF8202118
:1051700028A8FBF7B8F86C4627A22AA12046FDF71D
:105180001DFC2046FBF7BAF805190024306804F12D
:105190001001C840C0072BD0202128A8FBF7A3F896
:1051A000224621A128A8FDF709FC28AA1DA128460E
:1051B000FDF704FC28A8FBF7A1F80544202128A846
:1051C0006D1CFBF790F8194817A110F8140006EBB6
:1051D0004000007942B228A8FDF7F0FB28AA11A1EF
:1051E0002846FDF7EBFB28A8FBF788F805446D1C63
:1051F000641CE4B2092CC9D30DA20EA12846FDF708
:10520000DDFB69460CA0FDF75FF969460AA0FEF7D1
:10521000D7F930B070BD0000496E43616C6C496EC7
:105220007075740025732C0025640000284A01085D
:10523000454F46002573000025730D0A000000004D
:1052400070B5B0B00646A0216846FBF74CF82021A7
:1052500028A8FBF748F86C4627A22CA12046FDF7AA
:10526000ADFB2046FBF74AF805190024306804F12D
:105270001001C840C0072BD0202128A8FBF733F825
:10528000224623A128A8FDF799FB28AA1FA128469A
:10529000FDF794FB28A8FBF731F80544202128A846
:1052A0006D1CFBF720F81B4819A110F8140006EB41
:1052B0004000007942B228A8FDF780FB28AA13A17C
:1052C0002846FDF77BFB28A8FBF718F805446D1C62
:1052D000641CE4B2092CC9D30FA210A12846FDF723
:1052E0006DFB69460EA0FDF7EFF869460CA0FEF7CE
:1052F00067F930B070BD0000496E436F6D70726524
:1053000073736F724374726C0000000025732C007D
:1053100025640000284A0108454F46002573000017
:1053200025730D0A0000000070B5B0B00646A0213C
:105330006846FAF7D8FF202128A8FAF7D4FF6C4670
:1053400027A22CA12046FDF739FB2046FAF7D6FF0D
:1053500005190024306804F11001C840C0072CD0A2
:10536000202128A8FAF7BFFF224623A128A8FDF78D
:1053700025FB28AA1FA12846FDF720FB28A8FAF73D
:10538000BDFF0544202128A86D1CFAF7ACFF1B487F
:105390001BA110F8140006EB4000C38A007942B24A
:1053A00028A8FDF70BFB28AA12A12846FDF706FB4B
:1053B00028A8FAF7A3FF05446D1C641CE4B2092C6D
:1053C000C8D311A211A12846FDF7F8FA694610A02A
:1053D000FDF77AF869460EA0FEF7F2F830B070BD1E
:1053E000496E436F6D70726573736F724761696E5A
:1053F0000000000025732C0025640000284A0108E5
:1054000025642E2564000000454F460025730000EA
:1054100025730D0A0000000070B5B0B00646A0214B
:105420006846FAF760FF202128A8FAF75CFF6C466F
:1054300027A22CA12046FDF7C1FA2046FAF75EFF0D
:1054400005190024306804F11001C840C0072CD0B1
:10545000202128A8FAF747FF224623A128A8FDF714
:10546000ADFA28AA1FA12846FDF7A8FA28A8FAF73E
:1054700045FF0544202128A86D1CFAF734FF1B487E
:105480001BA110F8140006EB4000C38A007942B259
:1054900028A8FDF793FA28AA12A12846FDF78EFA4C
:1054A00028A8FAF72BFF05446D1C641CE4B2092CF4
:1054B000C8D311A211A12846FDF780FA694610A0B1
:1054C000FDF702F869460EA0FEF77AF830B070BD1D
:1054D000496E436F6D70726573736F725261746958
:1054E0006F00000025732C0025640000284A010885
:1054F00025642E2564000000454F460025730000FA
:1055000025730D0A0000000070B5B0B00646A0215A
:105510006846FAF7E8FE202128A8FAF7E4FE6C4670
:1055200026A22CA12046FDF749FA2046FAF7E6FE0E
:1055300005190024306804F11001C840C0072AD0C2
:10554000202128A8FAF7CFFE224623A128A8FDF79C
:1055500035FA28AA1FA12846FDF730FA28A8FAF73D
:10556000CDFE0544202128A86D1CFAF7BCFE1B487F
:1055700019A110F8140006EB4000828828A8FDF756
:105580001DFA28AA13A12846FDF718FA28A8FAF749
:10559000B5FE05446D1C641CE4B2092CCAD310A2EC
:1055A00010A12846FDF70AFA69460FA0FCF78CFF08
:1055B00069460DA0FEF704F830B070BD496E436F28
:1055C0006D70726573736F7252656C65617365544B
:1055D000696D650025732C0025640000284A0108C8
:1055E000454F46002573000025730D0A000000009A
:1055F00070B5B0B00646A0216846FAF774FE2021C7
:1056000028A8FAF770FE6C4626A22CA12046FDF7CA
:10561000D5F92046FAF772FE05190024306804F126
:105620001001C840C0072AD0202128A8FAF75BFE45
:10563000224623A128A8FDF7C1F928AA1FA12846C0
:10564000FDF7BCF928A8FAF759FE0544202128A83F
:105650006D1CFAF748FE1B4819A110F8140006EB60
:105660004000828828A8FDF7A9F928AA13A1284696
:10567000FDF7A4F928A8FAF741FE05446D1C641C47
:10568000E4B2092CCAD310A210A12846FDF796F95E
:1056900069460FA0FCF718FF69460DA0FDF790FFC3
:1056A00030B070BD496E436F6D70726573736F7209
:1056B000537461727454696D6500000025732C0089
:1056C00025640000284A0108454F46002573000064
:1056D00025730D0A0000000070B5B0B00646A02189
:1056E0006846FAF700FE202128A8FAF7FCFD6C4670
:1056F00027A22DA12046FDF761F92046FAF7FEFD0D
:1057000005190024306804F11001C840C0072CD0EE
:10571000202128A8FAF7E7FD224624A128A8FDF7B2
:105720004DF928AA20A12846FDF748F928A8FAF73C
:10573000E5FD0544202128A86D1CFAF7D4FD1C487E
:105740001CA110F8140006EB4000C38A007942B295
:1057500028A8FDF733F928AA13A12846FDF72EF94A
:1057600028A8FAF7CBFD05446D1C641CE4B2092C93
:10577000C8D312A212A12846FDF720F9694611A04C
:10578000FCF7A2FE69460FA0FDF71AFF30B070BD0E
:10579000496E436F6D70726573736F725468726592
:1057A00073686F6C6400000025732C002564000092
:1057B000284A010825642E2564000000454F460054
:1057C0002573000025730D0A0000000070B5B0B00D
:1057D0000646A0216846FAF786FD202128A8FAF798
:1057E00082FD6C461EA222A12046FDF7E7F8204666
:1057F000FAF784FD05193268002404F1100022FA3A
:1058000000F1C80718D0202128A8FAF76CFD194824
:1058100019A110F8140006EB4000828828A8FDF7B3
:10582000CDF828AA12A12846FDF7C8F828A8FAF74B
:1058300065FD05446D1C03E0641CE4B2092CDCD357
:105840000EA20FA12846FDF7B9F869460DA0FCF796
:105850003BFE69460BA0FDF7B3FE30B070BD000003
:10586000496E4475636B696E674374726C00000027
:1058700025732C00284A010825640000454F460086
:105880002573000025730D0A0000000070B5B0B04C
:105890000646A0216846FAF726FD202128A8FAF737
:1058A00022FD6C461FA223A12046FDF787F8204663
:1058B000FAF724FD05193268002404F1100022FAD9
:1058C00000F1C8071AD0202128A8FAF70CFD1A48C1
:1058D0001AA110F8140006EB4000C38A007942B206
:1058E00028A8FDF76BF828AA12A12846FDF766F84C
:1058F00028A8FAF703FD05446D1C03E0641CE4B21C
:10590000092CDAD30FA210A12846FDF757F86946F3
:105910000EA0FCF7D9FD69460CA0FDF751FE30B092
:1059200070BD0000496E4475636B696E67446570B5
:105930007468000025732C00284A010825642E2570
:1059400064000000454F46002573000025730D0AD2
:105950000000000070B5B0B00646A0216846FAF716
:10596000C2FC202128A8FAF7BEFC6C4627A22BA176
:105970002046FDF723F82046FAF7C0FC051900245D
:10598000306804F11001C840C0072CD0202128A89D
:10599000FAF7A9FC224622A128A8FDF70FF828AAA9
:1059A0001EA12846FDF70AF828A8FAF7A7FC054427
:1059B000202128A86D1CFAF796FC1A481AA110F8A5
:1059C000140006EB4000C38A007942B228A8FCF715
:1059D000F5FF28AA11A12846FCF7F0FF28A8FAF73E
:1059E0008DFC05446D1C641CE4B2092CC8D310A2C4
:1059F00010A12846FCF7E2FF69460FA0FCF764FD02
:105A000069460DA0FDF7DCFD30B070BD496E4475F0
:105A1000636B696E674761696E00000025732C0037
:105A200025640000284A010825642E256400000032
:105A3000454F46002573000025730D0A0000000045
:105A400070B5B0B00646A0216846FAF74CFC20219C
:105A500028A8FAF748FC6C461EA223A12046FCF7B2
:105A6000ADFF2046FAF74AFC05193268002404F11C
:105A7000100022FA00F1C80718D0202128A8FAF750
:105A800032FC1A481AA110F8140006EB4000828874
:105A900028A8FCF793FF28AA13A12846FCF78EFF3D
:105AA00028A8FAF72BFC05446D1C03E0641CE4B243
:105AB000092CDCD30FA210A12846FCF77FFF694612
:105AC0000EA0FCF701FD69460CA0FDF779FD30B092
:105AD00070BD0000496E4475636B696E67486F6CFA
