:020000040800F2
:10000000C0740020DD010008A50F0008E70100080A
:10001000A10F0008070400083927000800000000AD
:100020000000000000000000000000004501000882
:10003000550400080000000089010008151500089B
:10004000F7010008F7010008F7010008F7010008B0
:10005000F7010008F7010008F7010008F7010008A0
:10006000F7010008F7010008F7010008F701000890
:10007000F7010008F7010008F7010008F701000880
:10008000F7010008F7010008F7010008F701000870
:10009000F7010008F7010008F7010008F701000860
:1000A000F7010008F7010008F7010008F701000850
:1000B00005160008F7010008F7010008F70100081D
:1000C000F7010008F7010008F7010008F701000830
:1000D000F7010008B9190008F5190008311A0008DD
:1000E000F7010008F7010008F7010008F701000810
:1000F000F7010008F7010008F7010008F701000800
:10010000F7010008F7010008F7010008F7010008EF
:10011000F7010008F7010008F7010008F7010008DF
:10012000F7010008F7010008F7010008F7010008CF
:10013000DFF80CD000F018F900480047FDE2020893
:10014000C0740020224B19680868B0E8F00F80F3F3
:100150000988BFF36F8F4FF0000080F311884EF0D5
:100160000D0E70470000000006480068006880F32C
:10017000088862B661B6BFF34F8FBFF36F8F00DFA1
:1001800000BF00BF08ED00E0EFF30980BFF36F8F01
:100190000F4B1A6820E9F00F106008B54FF0BF0050
:1001A00080F31188BFF34F8FBFF36F8F38F03EFF9E
:1001B0004FF0000080F31188BDE808401968086816
:1001C000B0E8F00F80F30988BFF36F8F704700BF6E
:1001D00094000020EFF30580704700000648804738
:1001E00006480047FEE7FEE7FEE7FEE7FEE7FEE71C
:1001F000FEE7FEE7FEE7FEE74915000831010008CB
:100200002DE9F05F0546002092469B46884606464B
:10021000814640241BE0284641464746224600F0DE
:1002200092F853465A46C01A914110D311461846C7
:10023000224600F079F82D1A67EB01084F46224656
:100240000120002100F070F817EB00094E41201E3C
:10025000A4F10104DFDC484631462A464346BDE8A6
:10026000F09F00000649074A0868504343F23902EC
:10027000104408604008704701490860704700005A
:10028000CC0E00206D4EC64140EA01039B0703D00F
:1002900009E008C9121F08C0042AFAD203E011F8C5
:1002A000013B00F8013B521EF9D27047D2B201E087
:1002B00000F8012B491EFBD270470022F6E710B56B
:1002C00013460A4604461946FFF7F0FF204610BDC4
:1002D000421C10F8011B0029FBD1801A704730B571
:1002E00005460020034600E05B1C934205D2EC5C0F
:1002F000C85C201A01D1002CF6D130BD30B50B46B8
:10030000014600202022012409E021FA02F59D4245
:1003100005D303FA02F5491B04FA02F52844151E19
:10032000A2F10102F1DC30BD202A04DB203A00FA00
:1003300002F1002070479140C2F1200320FA03F33C
:10034000194390407047202A04DB203A21FA02F03A
:100350000021704721FA02F3D040C2F120029140FF
:100360000843194670470000064C074D06E0E06858
:1003700040F0010394E8070098471034AC42F6D3EC
:10038000FFF7DAFEACBA0308CCBA030870B58C18D4
:1003900010F8015B15F0070301D110F8013B2A1199
:1003A00006D110F8012B03E010F8016B01F8016B86
:1003B0005B1EF9D12B0705D40023521E0DD401F882
:1003C000013BFAE710F8013BCB1A921C03E013F84B
:1003D000015B01F8015B521EF9D5A142D8D3002080
:1003E00070BD10B52DF034F94FF4407000F014FEDC
:1003F00000F0D0F82CF0F8FF00F03AFE2DF06AF98A
:100400002DF070F910BD00BFFEE7F0B502460020E8
:1004100000240025134614E013F8015B00240EE0CD
:1004200080EA050606F001062EB180F018004010A3
:1004300040F0800000E040106D10661CF4B2082C03
:10044000EEDB0E1EA1F10101E6D1F0BD10B500F00A
:1004500031FC10BD70470000F8B50025354F3C4613
:100460000222694600202DF04FF99DF800009DF80A
:10047000011040EA01264AF2A750864227D00646DC
:10048000F0B28DF80000300A8DF8010002226946B2
:1004900000202DF058F917F0F9F9012525B1502267
:1004A000214602202DF04FF9206D002840D0542025
:1004B000005B00283CD0002D3AD054231A5B04F195
:1004C00050031B1B981C216D2DF03DF930E050228C
:1004D000214602202DF018F931F09AFF00B90125CC
:1004E00031F068FF00B9012525B1502221460220D4
:1004F0002DF029F9206DD8B15420005BC0B15423F0
:100500001A5B04F150031B1B981C216D2DF0FCF8A5
:10051000FFF79CFF08B1002500E0012545B15423F9
:100520001A5B04F150031B1B981C216D2DF00BF975
:10053000F8BD0000443C002070B505460C46284636
:100540002DF086FC40B1094901EB04204FF4807284
:100550002946FFF799FE08E0044901EB04204FF417
:10056000807203490968FFF78FFE70BD9C3D002033
:10057000EC00002010B50346002406E05B1C601C64
:10058000C4B2944201DD002010BD18788842F5D134
:100590001846F9E738B501213D2000F0B5FD0121ED
:1005A0001F4800F0CFF8002537E005EB45001D4956
:1005B00001EB4004207801282DDB207807282ADC75
:1005C00003208DF802006088ADF8000020798DF8D6
:1005D00003002178491E144A52F82100694600F0B0
:1005E00025F82079142802D02079102813D16079B9
:1005F000012808D161882278521E0B4B53F8220043
:1006000000F000F907E061882278521E064B53F88B
:10061000220000F0F5F8681CC5B2152DC5D338BD11
:1006200000023000DCA40308580000202DE9F0414E
:10063000024600250026002000230024002791F810
:1006400003C00CF00F0591F803C00CF0100CBCF1C6
:10065000000F03D091F802C04CEA050591F800C0E4
:10066000BCF1000F31D0146800202BE04FF0010CDA
:100670000CFA00F3B1F800C00CEA03069E4220D148
:1006800083004FF00F0C0CFA03F7BC4305FA03FC90
:100690004CEA040491F803C0BCF1280F06D14FF0D6
:1006A000010C0CFA00FCC2F814C00AE091F803C077
:1006B000BCF1480F05D14FF0010C0CFA00FCC2F858
:1006C00010C0401C0828D1D31460B1F800C0BCF1A0
:1006D000FF0F34DD546800202EE000F1080C4FF0CD
:1006E000010808FA0CF3B1F800C00CEA03069E42B8
:1006F00021D183004FF00F0C0CFA03F7BC4305FA2D
:1007000003FC4CEA040491F803C0BCF1280F05D1A6
:1007100000F1080C08FA0CF8C2F8148091F803C034
:10072000BCF1480F07D100F1080C4FF0010808FA9E
:100730000CF8C2F81080401C0828CED35460BDE8E5
:10074000F0810000F0B50A460023002400210025B6
:1007500000F00046B6F1004F02D11D4EF16901E0F4
:100760001B4E7168C0F3034583B200F44016B6F522
:10077000401F08D121F07061154E766826F0706632
:10078000134F7E6012E000F48016B6F5801F06D18C
:10079000032606FA05F4A14341F0706106E0460D18
:1007A000360103FA06F6B14341F0706122B1460DFD
:1007B000360103FA06F6314300F00046B6F1004F69
:1007C00002D1034EF16101E0014E7160F0BD000005
:1007D000000001400246002093680B400BB101204D
:1007E00000E0002070470146C86880B270470246AA
:1007F0000020D3680B400BB1012000E000207047BF
:100800004161704701617047C16070470AB1016181
:1008100000E04161704730B503460C4600250021D9
:1008200011E01878302805DB1878392802DC681CBC
:10083000C5B201E0002030BD5B1C481CC1B2914232
:1008400001DD0020F7E71878A042EAD10846F2E778
:100850002DE9FE4104460E4617464FF000080025DC
:1008600019E0207830280ADB2078392807DC207846
:100870000DF8080008F1010000F0FF0803E04FF058
:10088000FF30BDE8FE81641C681CC5B2BD4202DDBC
:100890004FF0FF30F5E72078B042E2D129466846B4
:1008A00000F0FAFD00B2ECE770B505460C460F2CDF
:1008B00063D2DFE804F0080E141A20262C32383EEA
:1008C000444A50565C000E222DA12846FFF7DCFC5E
:1008D00054E00E222EA12846FFF7D6FC4EE00D2252
:1008E0002FA12846FFF7D0FC48E00D2230A1284672
:1008F000FFF7CAFC42E00E2231A12846FFF7C4FCF4
:100900003CE00D2232A12846FFF7BEFC36E00E2265
:1009100033A12846FFF7B8FC30E00D2234A1284669
:10092000FFF7B2FC2AE00D2235A12846FFF7ACFC08
:1009300024E00D2236A12846FFF7A6FC1EE00E2279
:1009400037A12846FFF7A0FC18E00E2238A1284660
:10095000FFF79AFC12E00E2239A12846FFF794FC1B
:100960000CE00E223AA12846FFF78EFC06E00E228C
:100970003BA12846FFF788FC00E000BF00BF70BD28
:10098000313932307831323030403630487A0000F8
:10099000313932307831303830403630487A0000E2
:1009A0003132383078373230403630487A00000003
:1009B0003133363078373638403630487A000000E8
:1009C000313238307831303234403630487A0000B5
:1009D0003130323478373638403630487A000000CB
:1009E000313630307831323030403630487A00009D
:1009F0003134343078393030403630487A000000B5
:100A00003136303078393030403630487A000000A6
:100A10003132383078373230403530487A00000093
:100A2000313932307831303830403530487A000052
:100A3000313932307831303830403330487A000044
:100A4000313932307831303830403235487A000030
:100A5000333834307832313630403330487A000021
:100A6000343039367832313630403330487A00000D
:100A700002460020012919D102F00F03002B07DBE9
:100A800002F00F03092B03DC02F13003D8B226E099
:100A900002F00F030A2B07DB02F00F030F2B03DC1E
:100AA00002F13703D8B21AE0104618E0302A05DB0D
:100AB000392A03DCA2F13003D8B210E0412A05DB69
:100AC000462A03DCA2F13703D8B208E0612A05DB2D
:100AD000662A03DCA2F15703D8B200E01046704743
:100AE00070B5074D2C4606E0611BC1F3C70000211D
:100AF00031F062FD083420680028F5D170BD000097
:100B0000C8A5030800B530F04DFF00BD10B500F0DA
:100B100001F810BD10B5002030F028FF00B910BD5D
:100B20004FF4FA71002030F031FF0948007830B1FD
:100B300000200749087002212DF0B8FB06E00120D3
:100B400003490870012100202DF0B0FB00BFE6E74B
:100B50007500002070B50A4C25460A480A4908600D
:100B60000A480B4908600B480B49086068780B4934
:100B70000870012031F02EF931F03EF870BD000010
:100B8000D00E002070A00308EC000020050B000828
:100B9000E4000020A14701080C010020080100200A
:100BA0002F4901220A70002056E001238A1C1354A9
:100BB0008A1D13540023121D1354121D1354322383
:100BC000121D1354121D1354121D13540023121D11
:100BD0001354121D1354121D1354121D1354802349
:100BE000121D1354121D1354121D13540023121DF1
:100BF00002EB4002138001F1420202EB400213803B
:100C000001F14A0202EB4002138001F1520202EBB1
:100C10004002138001F15A021354121D02EB4002EC
:100C2000138001F1660202EB4002138001F16E02B3
:100C300002EB4002138001F1760202EB40021380C6
:100C400001F17E0202EB4002138001F1860202EB09
:100C500040021380421CD0B20428A6DB704700007B
:100C6000D00E002010B5114C4FF48072104801686E
:100C700004F18F00FFF708FB4FF480720C48016805
:100C800004F5C870FFF700FB4FF480720848016854
:100C900004F29120FFF7F8FA4FF4807204480168DB
:100CA00004F29230FFF7F0FA10BD0000D00E0020E1
:100CB000EC00002070B54A4C012504F18E00011BA8
:100CC0002046FFF7A2FB94F88E1088420AD0FFF767
:100CD00067FF04F18E00011B2046FFF796FB84F8A6
:100CE0008E00002504F28F1004F18F02811A104645
:100CF000FFF78BFB94F88F11884212D04FF480726B
:100D00003848016804F18F00FFF7BEFA04F28F1033
:100D100004F18F02811A1046FFF777FB84F88F01E8
:100D2000002504F5247004F5C872811A1046FFF7F7
:100D30006CFB94F89012884212D04FF480722948CC
:100D4000016804F5C870FFF79FFA04F5247004F5F4
:100D5000C872811A1046FFF758FB84F890020025EC
:100D600004F2913004F29122811A1046FFF74DFBF4
:100D700094F89113884212D04FF480721948016898
:100D800004F29120FFF780FA04F2913004F29122EC
:100D9000811A1046FFF739FB84F89103002504F20D
:100DA000924004F29232811A1046FFF72EFB94F81B
:100DB0009214884212D04FF480720A48016804F2FB
:100DC0009230FFF761FA04F2924004F29232811AF3
:100DD0001046FFF71AFB84F892040025284670BDE0
:100DE000D00E0020EC00002010B5FFF7D9FEFFF771
:100DF00039FF10BD70B5074C2646074D40F29341B0
:100E00002846FFF75AFA356540F293415420815342
:100E100070BD0000443C0020D00E002070B5054697
:100E2000294800EBC5042068A8B12079012809D120
:100E3000226851881278521E244B53F82200FFF783
:100E4000DFFC08E0226851881278521E1F4B53F8CD
:100E50002200FFF7D7FC05202CF00CFC2068A0B185
:100E6000207948B9226851881278521E174B53F8DE
:100E70002200FFF7C5FC08E0226851881278521E54
:100E8000124B53F82200FFF7BDFC0A202CF0F2FBB6
:100E90002068A8B12079012809D1226851881278E8
:100EA000521E0A4B53F82200FFF7AAFC08E0226802
:100EB00051881278521E054B53F82200FFF7A2FC0E
:100EC00014202CF0D7FB70BDBCA6030858000020EE
:100ED00070B52F4D2C4616E02079012809D12268E3
:100EE00051881278521E2B4B53F82200FFF788FCD2
:100EF00008E0226851881278521E264B53F82200CF
:100F0000FFF780FC083420680028E5D105202CF08C
:100F1000B1FB2C4615E0207948B922685188127837
:100F2000521E1C4B53F82200FFF76AFC08E02268AF
:100F300051881278521E174B53F82200FFF762FCBB
:100F4000083420680028E6D10A202CF093FB2C46B8
:100F500016E02079012809D1226851881278521EA2
:100F60000C4B53F82200FFF74BFC08E02268518835
:100F70001278521E074B53F82200FFF743FC083447
:100F800020680028E5D114202CF074FB70BD00000F
:100F9000BCA603085800002010B530F071FC10BD4D
:100FA00000BFFEE77047000070B5002100230F224C
:100FB000C47804B3154C246804F4E064C4F5E06418
:100FC000210AC1F10403CA40447804FA03F1847889
:100FD0001440214309010E4C0678A155047804F011
:100FE0001F050124AC4005786D11AD0005F1E02529
:100FF000C5F8004109E0047804F01F050124AC4065
:10100000044D0678761145F8264070BD0CED00E0E1
:1010100000E400E080E100E002490143024A11607F
:10102000704700000000FA050CED00E0024A0A409B
:101030000243024B1A60704780FFFF1F08ED00E07B
:101040000146042907DA054850F8210008B90120B3
:1010500070470020FCE70020FAE700009C410020D8
:101060000146024850F82100704700009C410020D2
:10107000002004E00021034A42F82010401C04280C
:10108000F8DB70479C41002000BF042802DA034AC5
:1010900042F8201000BF00BF704700009C410020B4
:1010A00000200BE0074951F8201031B1054951F8F3
:1010B0002010491E034A42F82010401C0428F1DB8E
:1010C000704700009C41002029B1064AD2690243C2
:1010D000044BDA6104E0034AD2698243014BDA61CE
:1010E000704700000010024029B1064A126902430D
:1010F000044B1A6104E0034A12698243014B1A61EE
:10110000704700000010024029B1064A926902436C
:10111000044B9A6104E0034A92698243014B9A614D
:10112000704700000010024029B1064AD26802430D
:10113000044BDA6004E0034AD2688243014BDA6070
:10114000704700000010024030B50021002200244A
:1011500000232D4D6D6805F00C0121B1042905D047
:10116000082923D105E0294D056022E0274D0560BF
:101170001FE0254D6D6805F47012234D6D6805F470
:101180008034022505EB92421CB9214D5543056080
:101190000BE01D4D6D6805F400351DB11C4D554328
:1011A000056002E0194D5543056002E0174D0560EA
:1011B00000BF00BF144D6D6805F0F0010909154D21
:1011C0006B5C0568DD4045600F4D6D6805F4E061BE
:1011D000090A104D6B5C4568DD4085600A4D6D68FD
:1011E00005F46051C90A0B4D6B5C4568DD40C56074
:1011F000054D6D6805F44041890B074D6B5CC56872
:10120000B5FBF3F5056130BD0010024000127A0015
:1012100000093D007D0000208D0000207CB50823E2
:101220006A4673217A2003F085FE05460DB12846F3
:101230007CBD002405E0201D1DF800002049085554
:10124000641C042CF7DB08236A4674217A2003F01F
:1012500071FE05460DB12846EAE7042404E01DF8B6
:10126000040017490855641C082CF8DB08236A465B
:1012700075217A2003F05EFE05460DB12846D7E7BA
:10128000002405E0201D1DF800000E490855641CCF
:10129000042CF7DB08236A4676217A2003F04AFE05
:1012A00005460DB12846C3E7042404E01DF80400F8
:1012B00004490855641C082CF8DB0020B8E700003E
:1012C000230500202B05002000BF0748006800F41C
:1012D000E06006490843001D03490860BFF34F8FD3
:1012E00000BF00BFFEE700000CED00E00000FA05C3
:1012F0002DE9F04704460D4616461F46DDE90889EC
:101300003A46314628462CF01EFA00BF00BF00BF07
:10131000BDE8F08710B500F001F810BD0CB5002055
:10132000019000903348006840F4803031490860F3
:1013300000BF3048006800F4003000900198401C65
:101340000190009818B90198B0F5A06FF1D1294823
:10135000006800F4003010B10120009001E000208E
:1013600000900098012843D12348006840F0100005
:10137000214908600846006820F00300086008461C
:10138000006840F0020008601A4840681949486047
:101390000846406848600846406840F480604860FD
:1013A0000846406820F47C1048600846406840F4D5
:1013B000E81048600846006840F08070086000BF90
:1013C0000C48006800F000700028F9D00948406817
:1013D00020F00300074948600846406840F00200DA
:1013E000486000BF0348406800F00C000828F9D1AD
:1013F0000CBD0000001002400020024070B5054DF9
:101400002E4606F10B04601D011B2046FEF7FDFF72
:10141000607170BD443C00207CB50B4C26463546BF
:1014200005F10800411B2846FEF7EFFF2872002057
:101430000121CDE90010A81B811C09232A460120A7
:10144000FFF756FF7CBD0000443C00202DE9FC4125
:101450000D4E37460D4D2C4604F18E00011B2046E3
:10146000FEF7D3FF84F88E0000200121CDE90010A3
:1014700007F15000C01B811C8F2322460420FFF778
:1014800037FFBDE8FC810000443C0020D00E002066
:1014900010B5FFF7A9FC10BD30B502460B46002081
:1014A00000210DE0994207DA545C303C00EB8005E6
:1014B00004EB4504A0B201E0202454544C1CE1B2DA
:1014C0000A29EFDB30BD000010B50A4C04E0606A69
:1014D00008B1606A8047283420780028F7D1FFF7E8
:1014E000DFFD13F0A1FC0448006810B10248006859
:1014F000804710BD2CA60308E400002070B5044D01
:101500002C4658212046FEF7D8FEFFF773FC70BD2D
:10151000443C002010B500BFBF2080F31188BFF30A
:101520004F8FBFF36F8F00BF38F076FA18B14FF0CE
:1015300080500449086000BF002080F3118800BF7C
:1015400010BD000004ED00E010B51348006840F045
:1015500001001149086008464068104908400E49DA
:101560004860084600680E4908400B490860084674
:10157000006820F4802008600846406820F4FE00DF
:1015800048604FF41F008860FFF7C4FE4FF0006012
:101590000449086010BD0000001002400000FFF880
:1015A000FFFFF6FE08ED00E010B5FFF7A7FFFEF71E
:1015B00053FFFFF7CFFA0F480068B0B90E48007824
:1015C0000C4908604FF48072084601680B48FEF72A
:1015D0005BFE002406E0214606480068FEF7ACFFEB
:1015E000601CC4B2042CF6DB00BF00200449087064
:1015F00010BD0000EC000020E1A603089C3C002088
:101600007400002010B50121880700F05BF9012863
:1016100011D109480078401C074908700846007835
:10162000012804DBFFF750FF002003490870012167
:10163000880700F043F810BDE80000207FB505469C
:101640000C4601210846FFF73FFD4FF0804000F0B7
:1016500045F801A800F0A2F9681E80B2ADF80800B4
:10166000601E80B2ADF804000020ADF80A00ADF8AD
:10167000060001A94FF0804000F03EF901218807E3
:1016800000F019F801221146900700F02CF9012111
:10169000880700F016F81C208DF8000001208DF856
:1016A000010000208DF8020001208DF8030068463B
:1016B000FFF77AFC7FBDCA4302827047CA430282A9
:1016C000704721B1028842F00102028004E00288E2
:1016D0004FF6FE731A4002807047000010B50446B2
:1016E0006848844208D10121C014FFF71DFD002184
:1016F000E014FFF719FDC4E0B4F1804F08D10121D7
:101700000846FFF7F1FC00210120FFF7EDFCB8E0EF
:101710005D48844208D101210220FFF7E5FC002149
:101720000220FFF7E1FCACE05848844208D10121D7
:101730000420FFF7D9FC00210420FFF7D5FCA0E02E
:101740005348844208D101210820FFF7CDFC002135
:101750000820FFF7C9FC94E04E48844208D10121DB
:101760001020FFF7C1FC00211020FFF7BDFC88E02E
:101770004948844208D101212020FFF7B5FC00210F
:101780002020FFF7B1FC7CE04448844208D10121CD
:101790004014FFF7C9FC00216014FFF7C5FC70E09E
:1017A0003F48844209D10121C804FFF7BDFC002154
:1017B0004FF40020FFF7B8FC63E03A48844209D1B7
:1017C00001210805FFF7B0FC00214FF48010FFF75E
:1017D000ABFC56E03448844209D101214805FFF7AB
:1017E000A3FC00214FF40010FFF79EFC49E02F48B6
:1017F000844208D101214020FFF776FC00214020DF
:10180000FFF772FC3DE02A48844208D10121802084
:10181000FFF76AFC00218020FFF766FC31E02548D5
:10182000844208D101218015FFF75EFC0021A0153C
:10183000FFF75AFC25E02048844209D10121080421
:10184000FFF772FC00214FF48030FFF76DFC18E0C9
:101850001A48844209D101214804FFF765FC0021A0
:101860004FF40030FFF760FC0BE01548844208D1CC
:1018700001218804FFF758FC00214FF48020FFF776
:1018800053FC10BD002C0140000400400008004043
:10189000000C0040001000400014004000340140E3
:1018A000004C01400050014000540140001800402D
:1018B000001C004000200040004001400044014066
:1018C0000048014030B50246002000230024158A5C
:1018D00005EA0103958905EA010413B10CB1012061
:1018E00000E0002030BD1AB183890B43838102E000
:1018F00083898B4383817047002202881D4B984265
:101900000ED01D4B98420BD0B0F1804F08D01B4B2E
:10191000984205D01A4B984202D01A4B984204D1F3
:101920004FF68F731A404B881A43174B984207D0D3
:10193000164B984204D04FF6FF431A40CB881A4307
:1019400002808B8883850B8803850A4B98420BD0D5
:10195000094B984208D00E4B984205D00D4B984247
:1019600002D00D4B984201D10B7A0386012383826A
:1019700070470000002C014000340140000400408A
:1019800000080040000C004000100040001400401F
:101990000040014000440140004801404FF6FF7103
:1019A000818000210180C18041800172704710B5A3
:1019B0002CF076FA10BD000070B50C4C40F22551A9
:1019C0000B4800F06CF880B10948001D0088C5B2D2
:1019D00007E02078012803D12846A169884703E061
:1019E000283420780028F4D100BF70BD2CA603084D
:1019F0000038014070B50C4C40F225510B4800F006
:101A00004EF880B10948001D0088C5B207E0207873
:101A1000022803D12846A169884703E028342078AA
:101A20000028F4D100BF70BD2CA60308004400407C
:101A300070B50C4C40F225510B4800F030F880B1E5
:101A40000948001D0088C5B207E02078032803D1AB
:101A50002846A169884703E0283420780028F4D17B
:101A600000BF70BD2CA603080048004021B1828948
:101A700042F40052828104E082894DF6FF731A40DD
:101A80008281704702460020B1F5007F00D100BF7F
:101A900013880B400BB1012000E00020704770B5A7
:101AA0000246002400230025002040F66A16B142B9
:101AB00000D100BFC1F3421501F01F03012606FA51
:101AC00003F3012D02D19689334006E0022D02D1A5
:101AD000168A334001E0968A33400C12012606FA3A
:101AE00004F41688344013B10CB1012000E000204A
:101AF00070BDF0B50346002400260025002040F606
:101B00006A17B94200D100BF1846C1F3421401F070
:101B10001F06012707FA06F5012C01D10C3004E05D
:101B2000022C01D1103000E014301AB107682F43A5
:101B3000076002E00768AF430760F0BD2DE9F0479A
:101B400086B005460E460024A24600BFA1460027E7
:101B5000B08900B100BF2F462C8A4CF6FF700440BC
:101B6000F08804432C82AC894EF6F3100440B08810
:101B700031890843718908430443AC81AC8A4FF62C
:101B8000FF400440B0890443AC8201A8FFF7DCFAAF
:101B90001F48874202D1DDF810A001E0DDF80CA05B
:101BA000A88900F4004040B10AEBCA0000EB0A101B
:101BB00031684900B0FBF1F807E00AEBCA0000EB1E
:101BC0000A1031688900B0FBF1F86420B8FBF0F02E
:101BD00004012009642101FB1089A88900F4004058
:101BE00040B1322000EBC900B0FBF1F000F007007B
:101BF000044308E0322000EB09106421B0FBF1F04F
:101C000000F00F0004432C8106B0BDE8F08700000F
:101C100000380140C1F308028280704770B586B079
:101C200005462878401EC6B206EB86002C4901EB1B
:101C300080042878012804D10121E068FFF764FAC4
:101C400003E00121E068FFF73FFA2089ADF80400C6
:101C500003208DF8060018208DF8070001A96068A0
:101C6000FEF7E4FC6089ADF8040004208DF807005D
:101C700001A96068FEF7DAFC686802902889ADF86F
:101C80000C006889ADF80E00A889ADF81000288A0C
:101C9000ADF81400E889ADF8120002A92068FFF73A
:101CA0004DFF01212068FFF7E1FEA86928B101225C
:101CB00040F225512068FFF71CFFA86970B1207C15
:101CC0008DF80000607C8DF80100A07C8DF802008A
:101CD00001208DF803006846FFF766F906B070BD75
:101CE000349B03082DE9F04105460E461746287837
:101CF000401E00EB80000C4901EB800800240EE040
:101D0000315DD8F80000FFF785FF00BF4021D8F80B
:101D10000000FFF7B7FE0028F8D0601C84B2BC4278
:101D2000EEDBBDE8F0810000349B030870B505468A
:101D30000C462878401E00EB80000A4901EB800623
:101D40000BE021783068FFF765FF00BF4021306865
:101D5000FFF798FE0028F9D0641C20780028F0D105
:101D600070BD0000349B03082DE9FF4707460C4671
:101D700015461E46DDE90D9ADDF830800094ADF879
:101D80000450ADF80660ADF80880ADF80CA0ADF8D1
:101D90000A9069463846FFF7D1FE012240F22551EC
:101DA0003846FFF7A6FE01213846FFF75FFEBDE883
:101DB000FF870FB410B5C2B045A801904FF48071F1
:101DC00002A8019B449A00F0DDF90446002001902E
:101DD000A1B2002202A837F0ABF8204642B010BCF6
:101DE0005DF814FB10B50A4C207F30B1204630F06E
:101DF0003DF8204600F061F908E094F8010828B1A8
:101E000020462FF0E3FD204600F057F910BD0000FA
:101E10007013002001460C48C28A40F2AF439A4238
:101E200004DAC28A531CC38283699954074A127820
:101E300022B101220275C822026103E0012202756B
:101E4000052202617047000070130020140000207A
:101E500010B5094C00F065F840F604012046FEF785
:101E60002CFA0648A06106482060064860600648D3
:101E7000A0600648E06010BD701300207C2B00209D
:101E8000098F0308D58E0308F18E0308C51E0008CC
:101E900010B50B4C206990B12069401E206120696B
:101EA00068B9207D10B10120207708E0207F30B98B
:101EB0004FF49661A069FEF700FA0020E08210BDA1
:101EC000701300200FB430B5C1B0144C04E020787A
:101ED000012800D103E0283420780028F7D100BF82
:101EE000207820B9002041B030BC5DF814FB00F030
:101EF00019F845A800904FF4807101A8009B449AFE
:101F000000F040F9054600200090AAB201A9204641
:101F1000FFF7E8FE00F004F82846E4E72CA60308E3
:101F2000704770477047000010B51A4C207F80B191
:101F3000012219A1A069FEF7D2F918B117A0A16971
:101F40002BF0DAFA20462FF091FF204600F0B5F88A
:101F500008E094F8010828B120462FF037FD20460C
:101F600000F0ABF80220FFF77BF848B90E48007884
:101F700030B100200C49087001210CA0A2689047E4
:101F80002FF0AEFA20B12CF0D9F908B1FFF79CF987
:101F900010BD0000741B00204D000000636D643A0A
:101FA00025730D0A00000000140000204054494D24
:101FB000454F555420544F2053454E4420454449E5
:101FC000440D0A0001461648C28A40F2AF439A42C5
:101FD00004DAC28A531CC38283699954114A127865
:101FE00022B101220275C822026117E082691278CB
:101FF000472A0FD182691278302A0BD1C28A8369AD
:10200000521E9A5C2E2A05D100220275026101221D
:10201000027703E001220275052202617047000089
:10202000741B00201400002010B50C4C00F041F887
:1020300040F604012046FEF740F90948A06109482E
:102040002060094860600948A0600948E0600020FD
:10205000084908700849087010BD0000741B002072
:102060002C300020658F0308318F03084D8F030843
:10207000B31D0008140000201500002010B50B4C03
:10208000206990B12069401E2061206968B9207DD7
:1020900010B10120207708E0207F30B94FF496611D
:1020A000A069FEF70AF90020E08210BD741B002031
:1020B0007047704770477047704710B5044600205E
:1020C00020752061E0824FF49661A069FEF7F5F873
:1020D0000020207710BD00000FB470B5C2B0284CAE
:1020E00003E0207D00B103E0283420780028F8D1F7
:1020F00000BF207820B9002042B070BC5DF814FB0E
:102100002078012802D1FFF70DFF0CE0207802288B
:1021100002D1FFF7CFFF06E02078032802D1FFF7B6
:10212000CBFF00E000BF47A801904FF4807102A8E8
:10213000019B469A00F026F80646002001900025F3
:1021400006E002A8411901222046FFF7CBFD6D1CD5
:10215000B542F6DB2078012802D1FFF7E1FE0CE062
:102160002078022802D1FFF7A3FF06E02078032899
:1021700002D1FFF7A0FF00E000BF3046BCE700003F
:102180002CA603082DE9FF4F8DB0934600BF00BF7A
:102190000D9CDDE90D4004EB000AC3E2252D04D0BF
:1021A000544501D204F8015BBCE20020089007907E
:1021B00009904FF0FF3900BF1BF8015B00BF2846B4
:1021C000422D7DD00DDCA0F12A00102879D2DFE865
:1021D00000F0EC7878EBEA78E9E8E7E6E5E4E3E2BA
:1021E000E1E068286ED00EDC62286CD006DC4C285A
:1021F0006AD0582869D05E2863D1F0E1632879D08D
:102200006428F9D13FE073280AD004DC6C2872D02E
:102210007028F1D12CE1752836D07828ECD128E14E
:10222000109850F8048B1090089810B9B9F1000F6D
:102230001DDBCDF81880B9F1000F08DA02E006982E
:10224000401C0690069800780028F8D10BE002E0C8
:102250000698401C06900698007820B1B9F100005D
:10226000A9F10109F4DC0698A0EB0809DFE102E01E
:1022700008F10108641C544504D298F8000020704D
:102280000028F5D14EE200BF06A8804606900798C8
:1022900004287DD11098C01D20F007001090D0E9CF
:1022A000006708301090642D4DD1CDE90A670021F8
:1022B0000846DDE90A67711A77EB00000DDA05E0E0
:1022C00093E1A6E194E18FE19BE1D3E00023DDE916
:1022D0000A01D0EB030663EB010700BF0A21711A64
:1022E00077F1000008D2F748815DA8F1010080462F
:1022F00001701BE01BE183E100BF0A22002330468E
:102300003946FDF77DFFEF48815CA8F1010080466A
:1023100001700A22002330463946FDF771FF064658
:102320000F460023584059400843E6D100BF002320
:10233000DDE90A10C91A984104DA2D21A8F101003B
:102340008046017088E000BF0A21711A77F1000011
:1023500006D2DC48815DA8F101008046017028E0CA
:1023600000BF0A22002330463946FDF749FFD54811
:10237000815CA8F10100804601700A2200233046EA
:102380003946FDF73DFF06460F46002358400DE055
:1023900010E0ECE0EAE0E8E0E6E0E4E0E2E0E0E0E3
:1023A000DEE0DCE0D6E0F8E014E1CCE059400843A0
:1023B000D7D151E0642D30D11098006805460C90BB
:1023C0001098001D10900C9D002D01DA0C984542CC
:1023D00000BF0A2D06D2BB48415DA8F1010080462E
:1023E000017010E000BF0A20B5FBF0F100FB1150B6
:1023F000B449095CA8F10100804601700A20B5FBD0
:10240000F0F0051EEFD100BF0C98002824DA2D2132
:10241000A8F10100804601701EE0109820C81090BD
:1024200000BF0A2D06D2A748415DA8F101008046F1
:10243000017010E000BF0A20B5FBF0F100FB115065
:10244000A049095CA8F10100804601700A20B5FB93
:10245000F0F0051EEFD100BF00BF00BF0698A0EB53
:102460000805B9F1000F01DBA94500DDA946DEE052
:1024700000BF00BF06A8804606900798042830D108
:102480001098C01D20F007001090D0E900670830B8
:10249000109000BF1021711A77F1000006D2894810
:1024A000815DA8F101008046017019E000BF102293
:1024B000002330463946FDF7A3FE8248815CA8F12F
:1024C0000100804601701022002330463946FDF796
:1024D00097FE06460F460023584059400843E6D170
:1024E00019E0109820C8109000BF102D06D2754832
:1024F000415DA8F10100804601700BE000BF05F0CE
:102500000F007049095CA8F101008046017028099C
:10251000051EF4D100BF00BF00BF0698A0EB080560
:10252000B9F1000F01DBA94500DDA9467FE0109855
:1025300010F8041B1090C8B2694688468DF8000058
:102540004FF0010973E01098006808901098001D82
:10255000109031E6099840F0010009902CE600BF88
:1025600000BF00BF00BF00BF00BF00BF00BFA5F19C
:10257000300008900AE0089840000890A5F130006B
:10258000089900EB81010898084408901BF8010B9A
:10259000054630380928EED911E61BF8015B2A2DD3
:1025A00004D1109850F8049B109005E600BF00BFBE
:1025B000A5F1300009280CD8814604E0A5F13000CF
:1025C0000A2109FB01091BF8010B054630380928CF
:1025D000F4D9F4E5099840F002000990ECE5099877
:1025E00040F004000990E7E500BF01200790E3E513
:1025F0000798022801D1012000E002200790DBE5C6
:1026000000BF0798032801D1042000E003200790B1
:10261000D2E500BF00BF544508D2E9B204F8011B5F
:1026200021B90D98201A11B0BDE8F08F7AE000BFF3
:102630000898484569DD0898A0EB0905099800F05D
:102640000600F0B985B1099800F0010008B130200A
:1026500000E02020099000BF544502D2099804F8F8
:10266000010B681E051EF7D105E0544503D218F88A
:10267000010B04F8010BB9F10000A9F10109F4DC28
:102680004FE0099800F00200B0B103E018F8010B28
:1026900004F8010BB9F10000A9F1010901DD54456D
:1026A000F4D302E0202004F8010B281EA5F1010557
:1026B00037D05445F6D334E06808089008982D1AAE
:1026C00005E0000074A80308202004F8010B089816
:1026D000411E0891002801DD5445F5D303E018F8A8
:1026E000010B04F8010BB9F10000A9F1010901DDAA
:1026F0005445F4D302E0202004F8010B281EA5F174
:1027000001050ED05445F6D30BE003E018F8010B99
:1027100004F8010BB9F10000A9F1010901DD5445EC
:10272000F4D300BF1BF8011B0D1E7FF437AD002052
:1027300020700D98201A76E700BFFEE70FB4084B13
:1027400010B504A902AA039802F01CFD044602A9D0
:1027500000200CF0ADFC204610BC5DF814FB00001E
:10276000B1F0000802E008C8121F08C1002AFAD11F
:1027700070477047002001E001C1121F002AFBD101
:10278000704710B50446A0B22AF074FF10BD0000D7
:1027900010B5FDF767FD0949096808440749086055
:1027A000084600680649484343F239010844034992
:1027B000086008460068C0F3074010BD1C010020F7
:1027C0006D4EC641F8B505460C461646A248005D5A
:1027D0008DF8000000208DF8020004F10C00C0B25A
:1027E0008DF80100684610F0FEFE05EB45009B49A0
:1027F00001EB401004EB440100F8314005EB4501CA
:10280000964A02EB411104EB440201EBC20021465F
:1028100011F01CFC924800EBC50005EB45018F4A06
:1028200002EB411104EB440201EBC20148608D4808
:1028300000EBC50005EB4501884A02EB411104EBB2
:10284000440201EBC2018860002005EB4501834A88
:1028500002EB411104EB440201EBC201C86005EB3D
:1028600045017E4A02EB411104EB440201EBC20137
:1028700008617D4805EB4501784A02EB411104EB04
:10288000440201EBC201486105EB4500734901EBCD
:10289000401004EB440100F83140012005EB4501F4
:1028A0006E4A02EB411104EB440201EBC201487095
:1028B00005EB4501694A02EB411104EB440201EBCF
:1028C000C20011F0AFFB05EB4501644A02EB411178
:1028D00004EB440201EBC20011F0AEFB002005EB5B
:1028E00045015E4A02EB411104EB440201EBC201D7
:1028F0004968087005EB4501584A02EB411104EBA9
:10290000440201EBC2014968487005EB4501534A96
:1029100002EB411104EB440201EBC20149688870EB
:1029200005EB45014D4A02EB411104EB440201EB7A
:10293000C2014968C87005EB4501484A02EB4111E4
:1029400004EB440201EBC2014968087105EB450143
:10295000424A02EB411104EB440201EBC201496817
:10296000487105EB45013D4A02EB411104EB44027D
:1029700001EBC2014968887105EB4500374901EB5D
:10298000401004EB440100EBC1004068C671FF2019
:1029900005EB4501314A02EB411104EB440201EB26
:1029A000C2018968087005EB45012C4A02EB411110
:1029B00004EB440201EBC2018968487005EB450154
:1029C000264A02EB411104EB440201EBC201896883
:1029D000887005EB4501214A02EB411104EB4402EA
:1029E00001EBC2018968C87005EB45011B4A02EB87
:1029F000411104EB440201EBC2018968087105EB47
:102A00004501164A02EB411104EB440201EBC201FD
:102A10008968487105EB4501104A02EB411104EB4E
:102A2000440201EBC2018968887105EB45010B4A3C
:102A300002EB411104EB440201EBC2018968C87149
:102A400005EB4501054A02EB411104EB440201EBA1
:102A5000C20011F007FBF8BDC2A80308C450002053
:102A6000A0010020A8010020B0010020F8B5054613
:102A70000C461646A248005D8DF8000000208DF837
:102A8000020004F10C00C0B28DF80100684610F09D
:102A9000AAFD05EB45009B4901EB401004EB440106
:102AA00000F8314005EB4501964A02EB411104EB79
:102AB000440201EBC200214611F0C8FA924800EB33
:102AC000C50005EB45018F4A02EB411104EB4402BE
:102AD00001EBC20148608D4800EBC50005EB4501E4
:102AE000884A02EB411104EB440201EBC201886009
:102AF000002005EB4501834A02EB411104EB44023F
:102B000001EBC201C86005EB45017E4A02EB4111B1
:102B100004EB440201EBC20108617D4805EB45016D
:102B2000784A02EB411104EB440201EBC201486117
:102B300005EB4500734901EB401004EB440100F83C
:102B40003140012005EB45016E4A02EB411104EBD7
:102B5000440201EBC201487005EB4501694A02EBF2
:102B6000411104EB440201EBC20011F05BFA05EBEA
:102B70004501644A02EB411104EB440201EBC2003F
:102B800011F05AFA002005EB45015E4A02EB4111B3
:102B900004EB440201EBC2014968087005EB4501F2
:102BA000584A02EB411104EB440201EBC2014968AF
:102BB000487005EB4501534A02EB411104EB440216
:102BC00001EBC2014968887005EB45014D4A02EBF3
:102BD000411104EB440201EBC2014968C87005EBE6
:102BE0004501484A02EB411104EB440201EBC201EA
:102BF0004968087105EB4501424A02EB411104EBBB
:102C0000440201EBC2014968487105EB45013D4AA8
:102C100002EB411104EB440201EBC20149688871E7
:102C200005EB4500374901EB401004EB440100EB94
:102C3000C1004068C671FF2005EB4501314A02EB37
:102C4000411104EB440201EBC2018968087005EBF5
:102C500045012C4A02EB411104EB440201EBC20195
:102C60008968487005EB4501264A02EB411104EBE7
:102C7000440201EBC2018968887005EB4501214AD5
:102C800002EB411104EB440201EBC2018968C870F8
:102C900005EB45011B4A02EB411104EB440201EB39
:102CA000C2018968087105EB4501164A02EB411122
:102CB00004EB440201EBC2018968487105EB450150
:102CC000104A02EB411104EB440201EBC201896896
:102CD000887105EB45010B4A02EB411104EB4402FC
:102CE00001EBC2018968C87105EB4501054A02EB99
:102CF000411104EB440201EBC20011F0B3F9F8BD3D
:102D0000C2A80308C4500020A0010020A801002090
:102D1000B001002038B504460D461F208DF8000094
:102D200000208DF802000C208DF80100684610F09C
:102D30005AFC04EB44009E4901EB401005EB4501B1
:102D400000F8315004EB4401994A02EB411105EBC4
:102D5000450201EBC200294611F078F9954800EBD5
:102D6000C40004EB4401924A02EB411105EB450219
:102D700001EBC2014860904800EBC40004EB440141
:102D80008B4A02EB411105EB450201EBC201886061
:102D9000002004EB4401864A02EB411105EB450299
:102DA00001EBC201C86004EB4401814A02EB41110E
:102DB00005EB450201EBC2010861804804EB4401C8
:102DC0007B4A02EB411105EB450201EBC201486170
:102DD00004EB4400764901EB401005EB450100F897
:102DE0003150012004EB4401714A02EB411105EB23
:102DF000450201EBC201487004EB44016C4A02EB4E
:102E0000411105EB450201EBC20011F00BF904EB97
:102E10004401674A02EB411105EB450201EBC20098
:102E200011F00AF9002004EB4401614A02EB411160
:102E300005EB450201EBC2014968087004EB44014F
:102E40005B4A02EB411105EB450201EBC201496807
:102E5000487004EB4401564A02EB411105EB450270
:102E600001EBC2014968887004EB4401504A02EB4F
:102E7000411105EB450201EBC2014968C870504899
:102E8000C07804EB44014A4A02EB411105EB4502CC
:102E900001EBC201496808714948807804EB44019C
:102EA000434A02EB411105EB450201EBC2014968BF
:102EB00048714348407804EB44013D4A02EB41111C
:102EC00005EB450201EBC201496888713C48007876
:102ED00004EB4401364A02EB411105EB450201EBDC
:102EE000C2014968C871FF2004EB4401304A02EB7B
:102EF000411105EB450201EBC2018968087004EB42
:102F000044012B4A02EB411105EB450201EBC201E2
:102F10008968487004EB4401254A02EB411105EB36
:102F2000450201EBC2018968887004EB4401204A24
:102F300002EB411105EB450201EBC2018968C87043
:102F400004EB44011A4A02EB411105EB450201EB87
:102F5000C2018968087104EB4401154A02EB411172
:102F600005EB450201EBC2018968487104EB44019D
:102F70000F4A02EB411105EB450201EBC2018968E2
:102F8000887104EB44010A4A02EB411105EB45024A
:102F900001EBC2018968C87104EB4401044A02EBE9
:102FA000411105EB450201EBC20011F05BF838BDA1
:102FB000C4500020A0010020A8010020B001002082
:102FC000BAA8030802468A4201DD501A00E0881AB6
:102FD00083B20A2B01DA012070470020FCE70000D1
:102FE0002DE9F04105460F46164600248EE04A487A
:102FF00000EB8500005DB84242D1484800EB8500F7
:10300000454901EB8501095D405CB0427CD04348F5
:1030100000EB8500404901EB8501095D465486B30C
:103020003F4800EB8500005D60B13E4800EB850045
:10303000015D40F2F72068433B4A02EB400000F29A
:10304000634001553948025D40F2F7206843364B32
:1030500003EB400000F26340015D0023284614F0BA
:10306000E5FC3348025D40F2F72068432E4B03EB4A
:10307000400000F26340015D0023284614F0D6FCB6
:1030800042E0FFE7264800EB8500005D60B125487F
:1030900000EB8500015D40F2F7206843224A02EB15
:1030A000400000F263400155224800EB8500005DBE
:1030B00008B9012000E0002003461C48025D40F2F0
:1030C000F7206843DFF860C00CEB400000F263407B
:1030D000015D284614F0AAFC164800EB8500005D4F
:1030E00008B9012000E0002003461148025D40F2CB
:1030F000F7206843DFF830C00CEB400000F263407B
:10310000015D284614F092FC601CC4B2042CFFF64A
:103110006EAFBDE8F08100008C010020C2010020EC
:10312000D5010020940100208451002006A9030845
:103130000AA90308BE01002070B504000BD00022CC
:103140000E4D072168882FF0F9FA34B10A202FF0CC
:1031500093F9012202E00122F2E7002229780120FE
:103160008840C1B22C202FF0E9FA68882246BDE8D9
:103170007040401C80B202212FF0E0BA2C0E0020DB
:1031800070B5164CE8B1164A002000BF52F8303036
:103190008B4203D2401CC0B20328F7D302EBC00518
:1031A000F02128790007020E60882FF089FAA879AB
:1031B0006979000140EA8100C1B26088C01C80B218
:1031C00008E03022F02160882FF07AFA6088C01C75
:1031D00080B22421BDE870402FF0BABA2C0E002036
:1031E000A4B40308064A52F82000401C002980B20B
:1031F0004FF0040101D02FF053BA2FF093BA000022
:103200001C0E002070B508230B704B70C4884C60F6
:1032100064228578C026002345B1012D10D0022DEF
:1032200004D08B60642C1CDC224620E0457A6DB112
:10323000012D03D0022DF5D160250EE080250CE094
:10324000457A2DB1012D06D0022DEBD18E60E9E734
:103250004FF4C07501E04FF480758D60E2E7521CB9
:1032600092B294FBF2F502FB1545002DF7D1CA602E
:10327000848802250C61E60781F840504FF0010276
:1032800004EBD47402D002EB640400E064104C61DF
:1032900003248C61CC6106240C6281F8243081F80F
:1032A000253081F8263081F82730807820B1012838
:1032B00005D0032808D105E081F8242004E081F836
:1032C000262001E081F827204FF400508862001189
:1032D000C86281F83020C1E90D53CB6370BD000096
:1032E0002DE9F05FFE49FF4CFF4DDFF80084A0F5AB
:1032F00000734FF470424FF2300A4FF2380B4FF424
:1033000054164FF2D4074FF40029153B7ED0B0F588
:10331000C87F7BD0A0F5007340F602049A3B07D02B
:10332000B0F5487F73D0A0F54073A53B70D0C9E1DC
:1033300010462FF074FA002150462FF070FA002149
:1033400058462FF06CFA4FF404114FF250002FF052
:1033500066FAE7494FF264002FF061FA00214FF25C
:1033600060002FF05CFAE0494FF2D00020312FF0DE
:1033700056FAE0494FF2DC002FF051FA4FF4801179
:103380004FF2E0002FF04BFA4FF410214FF2E4001F
:103390002FF045FAD8494FF471402FF040FAD74941
:1033A0004FF204102FF03BFA4FF481614FF20810F6
:1033B0002FF035FA42F206014FF20C102FF02FFADF
:1033C000CF494FF210102FF02AFACE494FF21410C5
:1033D0002FF025FA21464FF220102FF020FA4FF05F
:1033E00000414FF23C102FF05EF9C7494FF28010B8
:1033F0002FF015FAC5494FF284102FF010FAC44986
:103400004FF290102FF00BFAC24902E027E0C3E11F
:10341000BCE04FF294102FF002FABF494FF298101F
:103420002FF0FDF9AF494FF2A01015392FF0F7F941
:103430004FF001114FF2A4102FF0F1F900214FF2DB
:10344000A8102FF0ECF900214FF2B0102FF0E7F99F
:1034500000214FF2C4102FF0E2F9B04929E11046E3
:103460002FF0DDF9002150462FF0D9F90021584600
:103470002FF0D5F94FF404114FF250002FF0CFF98F
:1034800021464FF264002FF0CAF900214FF260008C
:103490002FF0C5F929464FF2D0002FF0C0F9314680
:1034A00038462FF0BCF941464FF2DC002FF0B7F957
:1034B00049464FF2E0002FF0B2F94FF410214FF2DD
:1034C000E4002FF0ACF996494FF471402FF0A7F9C2
:1034D00094494FF204102FF0A2F940F207414FF245
:1034E00008102FF09CF942F206014FF20C102FF059
:1034F00096F98D494FF210102FF091F98B494FF248
:1035000014102FF08CF940F601014FF220102FF02B
:1035100086F94FF000414FF23C102FF0C4F87A4981
:103520004FF280102FF07BF981494FF284102FF079
:1035300076F980494FF290102FF071F975494FF2EA
:1035400094102FF06CF974494FF298102FF067F92E
:1035500064494FF2A01015392FF061F94FF00111B5
:103560004FF2A4102FF05BF900214FF2A8102FF0BA
:1035700056F900214FF2B0102FF051F900214FF20F
:10358000C4102FF04CF96549091F92E010462FF046
:1035900046F9002150462FF042F9002158462FF0FD
:1035A0003EF94FF404114FF250002FF038F9624900
:1035B0004FF264002FF033F900214FF260002FF03A
:1035C0002EF949494FF2D00061312FF028F95B49BB
:1035D0004FF2DC002FF023F94FF400114FF2E0001E
:1035E0002FF01DF94FF430214FF2E4002FF017F9BE
:1035F00053494FF471402FF012F952494FF2041021
:103600002FF00DF940F20A514FF208102FF007F990
:1036100042F207014FF20C102FF001F94A494FF224
:1036200010102FF0FCF849494FF214102FF0F7F862
:1036300021464FF220102FF0F2F84FF000414FF2E8
:103640003C102FF030F842494FF280102FF0E7F88D
:1036500040494FF284102FF0E2F83F494FF29010AA
:103660002FF0DDF82B494FF294102FF0D8F82A49AB
:103670004FF298102FF0D3F81A494FF2A0101539D5
:103680002FF0CDF84FF001114FF2A4102FF0C7F832
:1036900000214FF2A8102FF0C2F800214FF2B01015
:1036A0002FF0BDF800214FF2C4102FF0B8F81B49DD
:1036B00008314FF240202FF0B2F801214FF24420A0
:1036C0002FF0ADF841F61F714FF472402FF0A7F8BC
:1036D00022494FF204202FF0A2F8002140E0000020
:1036E0000100040118004000830001009600311918
:1036F000250051008600501B0C160F0A1102020013
:10370000050302050203040420008000A77B0202D7
:10371000020103030101040001010007080600067D
:103720000A120A0B0E04020005020202020203033F
:1037300053FC0102040104032A0071009600151FC6
:10374000101F1112170803000703020103030505E8
:1037500026009600C979030208010A030808080038
:103760004FF208202FF05BF800214FF20C202FF0D1
:1037700056F800214FF210202FF051F84FF0073487
:1037800021464FF214202FF04AF82146BDE8F05FA1
:103790004FF218202FF043B810462FF040F80021C8
:1037A00050462FF03CF8002158462FF038F84FF4DF
:1037B00004114FF250002FF032F840494FF26400EC
:1037C0002FF02DF800214FF260002FF028F83C492F
:1037D0004FF2D0002FF023F83A494FF2DC002FF0DF
:1037E0001EF84FF4C0114FF2E0002FF018F84FF41C
:1037F00010214FF2E4002FF012F833494FF47140DA
:103800002FF00DF831494FF204102FF008F840F274
:1038100009514FF208102FF002F842F206014FF260
:103820000C102EF0FCFF2A494FF210102EF0F7FF7B
:1038300028494FF214102EF0F2FF21464FF22010CB
:103840002EF0EDFF4FF000414FF23C102EF02BFF19
:1038500021494FF280102EF0E2FF20494FF28410F0
:103860002EF0DDFF1E494FF290102EF0D8FF1D49BB
:103870004FF294102EF0D3FF1B494FF298102EF008
:10388000CEFF1A494FF2A0102EF0C9FF4FF00111E0
:103890004FF2A4102EF0C3FF00214FF2A8102EF01B
:1038A000BEFF00214FF2B0102EF0B9FF00214FF201
:1038B000C4102EF0B4FF0E49FBE600002C0061009E
:1038C000C40001008600701D0E1B100C14030300C1
:1038D000060302060303040420008000F0FA02023B
:1038E000020104030101040001010007030040007C
:1038F0000C06000638B540214EF268002EF015FF88
:1039000000214EF2C4002EF08AFF18494EF2040046
:103910002EF085FF14202EF0CBFE4FF40070012313
:103920004EF2100500901A461946284600F066F936
:10393000044628462EF0F4FE010100D50024410182
:1039400000D50024810100D50024C10100D5002448
:10395000010200D50024410200D50024810200D5D7
:103960000024C00200D50024204638BD013E0400DA
:103970002DE9F05F4EF21C027149724C151D724E1A
:10398000DFF8C8A1DFF8C891DFF8C881A0F500739F
:103990004EF228074EF22C0B153B39D0B0F5C87FFC
:1039A00036D0A0F500739A3B07D0B0F5487F7DD0A4
:1039B000A0F54073A53B56D08AE010462EF02FFFAD
:1039C000214628462EF02BFF634938462EF027FF6C
:1039D000624958462EF023FF61494EF248002EF00E
:1039E0001EFF60494EF24C002EF019FF5E494EF268
:1039F00050002EF014FF41F650314EF254002EF0DC
:103A00000EFF86214EF258002EF009FF102156E0DD
:103A100010462EF004FF214628462EF000FF3146C6
:103A200038462EF0FCFE514658462EF0F8FE494628
:103A30004EF248002EF0F3FE41464EF24C002EF0BE
:103A4000EEFE4A494EF250002EF0E9FE41F63111E9
:103A50004EF254002EF0E3FE96214EF258002EF066
:103A6000DEFE08212BE010462EF0D9FE2146284626
:103A70002EF0D5FE3E4938462EF0D1FE3D4958463F
:103A80002EF0CDFE3C494EF248002EF0C8FE3B49D8
:103A90004EF24C002EF0C3FE39494EF250002EF08B
:103AA000BEFE41F615714EF2540000E01CE02EF00F
:103AB000B6FE96214EF258002EF0B1FE20214EF2B5
:103AC0005C002EF0ACFE00214EF260002EF0A7FE4E
:103AD00000214EF280202EF0A2FEBDE8F05F002112
:103AE0004EF240202EF09BBE10462EF098FE21464E
:103AF00028462EF094FE234938462EF090FE2249A7
:103B000058462EF08CFE21494EF248002EF087FEDA
:103B10001F494EF24C002EF082FE1E494EF250001C
:103B20002EF07DFE41F670514EF254002EF077FEDD
:103B300086214EF258002EF072FE1821BFE70000D9
:103B400050182003480060090F1164036DA0590844
:103B50004488147100058316D3150505BB086E0A49
:103B600055995885C053821A0042021036900110B0
:103B7000491EE705EAD89A0E77DDA0B55848851E9C
:103B80005E980210801A06060071820C66BB9C9D2E
:103B900000C4821A00D2021000284FF004014FF036
:103BA000290001D02EF0C1BD2EF07DBD08B5012148
:103BB0004FF220302EF0B9FD01202EF079FD4FF4A8
:103BC0000070012300901A4619464FF2243000F08D
:103BD00015F808BD08B501214FF220302EF063FD25
:103BE00001202EF065FD4FF40070012300900022AB
:103BF00019464FF2243000F001F808BD2DE9F041DC
:103C00001D4616460F468046069C0DE040462EF0A7
:103C100087FD3840B04203D101203CB1BDE8F081BE
:103C200015B1E8B22EF044FD641EEFD10020F5E797
:103C30002DE9F0410446112129202EF089FD0421AF
:103C400029202EF072FD4FF080514EF204002EF02C
:103C50006CFD01202EF02AFD4FF000554EF21806A3
:103C6000294630462EF061FD6F00394630462EF071
:103C70005CFD01202EF01AFD294630462EF013FD82
:103C800001202EF013FD394630462EF00CFD0120A8
:103C90002EF00CFD4EF2C4164EF2042730462EF0E4
:103CA0003FFD054638462EF03BFD290404D50004AF
:103CB00002D50120BDE8F08101202EF0F7FC641E42
:103CC000ECD10020F6E7000070B50B4D04464CF631
:103CD000107135F8240000F5006080B22EF09FFDD1
:103CE00035F82400BDE8704000F5006080B244F66D
:103CF00010712EF094BD000064060020054A32F8D1
:103D000020000A4600F5006080B24FF480412EF09A
:103D10001ABD00006406002070B50E4E04460D4624
:103D200036F824000A4600F6080080B201212EF081
:103D30000AFD15B14FF4706200E0002236F824004D
:103D4000BDE8704000F5006080B24FF4F8512EF0ED
:103D5000C6BC0000640600202DE9FC4115460F4654
:103D60008046012A13D0032D11D000260024022DF5
:103D70000FD306EBC40107EBC400C9B2CDE90010B4
:103D8000A02301226021404631F0D4FE0AE08026C3
:103D9000ECE706EBC400C2B207EBC403A021404627
:103DA00031F058FF002804D0641CE4B2102CDED39C
:103DB0000120BDE8FC812DE9FF410D468046012927
:103DC00017D0032D15D00026002402AF022D0AD3F0
:103DD00006EBC400C0B2CDE90007A0230122602198
:103DE000404631F0A7FE641CE4B2102CEED3BDE8CF
:103DF000FF818026E8E700002DE9F0414A4D0446A6
:103E00000E4635F824000122801D80B210212EF0CC
:103E100095FC05F11007042E2BD0032E2FD0022E77
:103E200046D0012E44D0052E42D0062E60D0002E62
:103E300077D135F824000222001D80B203212EF034
:103E40003FFC35F824000022801D80B204212EF0B2
:103E500075FC35F824002021401D80B22EF020FC96
:103E600035F82400BDE8F041001D80B208212EF095
:103E700017BC35F82400001D80B2032204E035F899
:103E80002400001D80B2002203212EF019FC37F817
:103E900024001021401C80B22EF002FC35F82400D2
:103EA000BDE8F041801D012280B204212EF046BC05
:103EB00035F824000122001D80B203212EF000FC01
:103EC00037F824001021401C80B22EF0E9FB35F8B1
:103ED00024000122801D80B204212EF02FFC35F831
:103EE0002400BDE8F041001D80B208212EF01ABC6C
:103EF00035F824000222001D80B203212EF0E0FBE1
:103F000035F824000022801D80B204212EF016FC1A
:103F100035F824002021401D80B22EF003FC9FE7DD
:103F2000FFE7BDE8F08100007406002010B541F203
:103F30001F110B4604461A4600F00EF805480021F2
:103F400030F82400BDE8104000F5397080B22EF042
:103F500066BC00006406002070B514460A461E4682
:103F60000546312100F0F6F822465121284600F09E
:103F7000F1F832462846BDE87040712100F0EAB8F9
:103F80002DE9FF4F002581B00E46A946A8460BB18A
:103F9000012E01D00C464EE04FF001090C460320E3
:103FA000B4FBF0F100FB1145B9F1010F06D1022D70
:103FB00001D015B102E0002500E002252946039A50
:103FC000019800F045F80620019FDFF880B04FF01F
:103FD000000A009001202EF049FA3BF8270000F576
:103FE0007E6080B22EF09CFB40060AD541F21F1184
:103FF0000B461A463846FFF7AFFF802005B0BDE8F4
:10400000F08F0121384630F03BFF10B1012D09D06F
:104010000FE00AF10100009900F0FF0A8A45D9D3A8
:104020002846EBE7B8F1000F03D1641E4FF00108FA
:10403000E4B2641CE4B2F01C8442B0D325B1002188
:10404000039A019800F004F84020D7E764060020A6
:1040500070B5054641F21F16012912D0022925D05C
:10406000314633464FEA0302FFF776FFFA202EF07F
:1040700003FAFA202EF000FA2846BDE87040FFF758
:1040800023BE40F21F1423461A461146FFF764FF71
:10409000334631461A462846FFF75EFFFA202EF0D7
:1040A000EBF923461A4611462846DDE742F21F1176
:1040B0000B46D7E7F8B5074600201546ADF80000D7
:1040C0001C460E466A46384600F010F800280BD011
:1040D000BDF8000004EA0502A8430243ADF8002041
:1040E0003146384600F036F8F8BD00002DE9F041C1
:1040F00016460F46044600F07DF8154D394635F852
:10410000240000F5327080B22EF089FB35F82400CF
:104110004FF0805100F6E87080B22EF080FB35F849
:104120002400022100F5357080B22EF078FB204685
:1041300000F044F8002808D035F8240000F5347069
:1041400080B22EF0EDFA30800120BDE8F081000051
:10415000640600202DE9F04117460E46044600F0A3
:1041600049F8154D314635F8240000F5327080B21B
:104170002EF055FB35F82400394600F5337080B237
:104180002EF04DFB35F824004FF0805100F6E8701A
:1041900080B22EF044FB35F82400012100F5357083
:1041A00080B22EF03CFB204600F008F8002800D03A
:1041B0000120BDE8F08100006406002070B50546CE
:1041C00064240B4E0EE000BF36F8250000F57E603B
:1041D00080B22EF0A5FAC00001D5012070BD0A20E2
:1041E0002EF066FA641E14F0FF04EDD1002070BDBD
:1041F000640600200649064A10B5921D095C32F893
:10420000200000F5317080B22EF009FB012010BDB6
:104210005E0600202DE9F04F02784FF0000C022AD4
:1042200019D14278032A16D1C278DFF8E09002F063
:1042300030024A70002287784FF0010A5DE0131DBA
:1042400003F07F0303441D7805F01F066C0902EBA1
:104250000608B84502D90120BDE8F08F082C48D2E5
:10426000DFE804F047470436474747270024DFF8D4
:10427000A0B04FF4070E19E0641CE4B200221D5DEB
:1042800005F07F05562D11D35D2D01D25A4608E069
:10429000622D05D3672D01D2724602E06C2D00D24B
:1042A0004A460D69954200D32A460A61B442E3D3D7
:1042B0001FE05A78052A1CD003DCD2B1012A04D1B0
:1042C00017E0102A15D0112A13D081F814A010E09D
:1042D0005A78032A04D19A780C2A01D1DA7882B16B
:1042E00081F814A01A7802F01F02072A01D3DA79A4
:1042F0000A7308F1010808F0FF02BA429FD3604632
:10430000AAE781F800A04FF0010CEBE700907E00D7
:1043100000302A0030B5445C0844457804EB05249D
:104320002404240C0BD0057984782D0904EB052492
:104330004579C079000905EB00202AB108E03AB1BF
:10434000012A05D1002030BD362901D144439C60AB
:10435000012030BD45F6C050B0FBF1F0FA2901D381
:104360000A2100E01421B0FBF1F101EB50011980AA
:10437000401A1080704700221146435C491C1A44C1
:10438000C9B2D2B28029F8D30AB100207047012007
:10439000704770B50C46054601461C222046FBF7C7
:1043A00073FF287A012803D1002060720420607313
:1043B00070BD000038B50446114848F2100550F8A9
:1043C0002420121D90B249B1002201212EF078F96B
:1043D00001202EF051F82B4600950AE001221146EB
:1043E0002EF06EF901202EF047F84FF400402B46D6
:1043F000009000225521204631F098FF38BD000082
:104400001C0E00202DE9F00F002283464B6801208E
:104410001546914694461746002B71D04E7B4FF6B9
:10442000FF7AB046042E06D0052E07D0062E0FD0F8
:10443000072E1ED116E0487A401C17E0487A012763
:10444000401C00EB8000B3FBF0F60AEA860010E0A7
:10445000487A0227401C00EB4000B3FBF0F60AEA62
:10446000460006E0487A03274000801CB3FBF0F0CA
:1044700080B2B3FBF0F6497AF6B211B9B8F1040F85
:104480000FD0022E15D0042E10D0082E0BD0B8F16C
:10449000050F10D0B8F1060F20D0032E31D0062E14
:1044A00027D0044636E00325022231E0032501220D
:1044B0002EE003251FE0012561B1012902D0032967
:1044C00007D007E0B0F5166F01D2042202E0012206
:1044D00000E0022200EB8000800317E0022591B18A
:1044E000012902D0032902D00DE001220BE00222B3
:1044F00009E002252A46022D05D0032D0AD107E046
:1045000035E00225F1E700EB4000C003040C01E0B8
:104510000AEA400441F2112041008600844201D29F
:10452000032406E08C4201D2022402E0B44201D20C
:104530000124A146834202D24FF0030C08E08B42D3
:1045400002D24FF0020C03E0B34201D24FF0010C53
:10455000780340EACC1141EA491040EA82032B4338
:104560005846BDE8F00F0622552131F045BFBDE8A1
:10457000F00F7047F8B500250F4606462C46ADF8FB
:1045800000506B460622552131F0EAFEBDF80010BE
:10459000C1F34110C1F3C11120B1012804D0022898
:1045A00005D103E0032502E0022500E0012521B149
:1045B000012904D0022905D103E0032402E00224EA
:1045C00000E00124786841F29411884201D2012070
:1045D00004E041F65831884217D2022000214002FF
:1045E00040EA811040F01003ADF800301022552150
:1045F000304631F001FF44EA8503ADF80030152262
:104600005521304631F0F8FEF8BD42F28C31884237
:10461000DDD343F6A4018842DFD344F2EC51884253
:10462000D5D346F2A8118842D1D202200146D6E75E
:1046300070B5144D0446012135F82400703080B265
:104640002EF070F835F824000121401D80B22EF0C4
:1046500069F805F11006042136F82400401C80B2E8
:104660002EF060F836F82400052180B22EF05AF8BA
:1046700035F82400BDE87040313080B280212EF042
:1046800051B800000C0E002041B10022044931F85D
:104690002000401C80B203212EF050B80122F5E723
:1046A0001C0E00200449002231F82000353080B271
:1046B00030212EF005B800000C0E00202DE9F0414D
:1046C000284D06460F4635F8260020210E3080B2D0
:1046D0002DF0E6FF0E212448FBF7EFFD224C84214C
:1046E0000120217060700A20A0708F20E07078791E
:1046F000207100206071B87AE0710420E278235CB8
:10470000401C1A44C0B2E2700E28F7D3D0B2404227
:10471000E07035F826000A3080B22EF019F835F82E
:1047200026006178093080B22EF012F835F82600A4
:10473000A1780B3080B22EF00BF8032735F8260055
:10474000E15D0D3080B22EF003F87F1CFFB20E2F1A
:10475000F4D335F82600BDE8F0410E3080B22021B8
:104760002DF0E0BF0C0E00209C6400201A4A08299E
:1047700031D2DFE801F030160A041C10222832F88A
:104780002000313080B2042222E032F820003130A3
:1047900080B220221CE032F82000313080B20222A8
:1047A00016E032F82000313080B2402210E032F8BA
:1047B0002000313080B210220AE032F8200031307F
:1047C00080B2082204E032F82000313080B20122A9
:1047D0007F212DF075BF70470C0E00202DE9F041B0
:1047E000344E17460446A6F1100541B3012957D0AF
:1047F00002295DD10021FEF7F5FC0021204631F0B1
:1048000043F935F824000121303080B22DF08AFFC1
:1048100036F82400802180B22DF084FF36F8240081
:10482000102280B230212DF04BFF00BF35F824005C
:10483000BDE8F041363080B202212DF031BF0121B8
:10484000FEF7D0FC0121204631F01EF9082F10D0D0
:10485000012F2DD136F82400002280B230212DF016
:104860002FFF35F824000121303080B22DF018FFE1
:10487000DCE736F82400102280B230212DF020FF32
:1048800035F824000121303080B22DF04BFF35F88F
:104890002400BDE8F041363080B202212DF042BF45
:1048A0000121FEF79FFC0021204631F0EDF8D1E711
:1048B000BDE8F0811C0E002070B5234C054604298C
:1048C00017D0052923D006292FD007293BD134F84A
:1048D00025000122083080B204212DF02FFF34F88A
:1048E0002500083080B20322BDE8704003212DF07E
:1048F000E7BE34F825000022083080B204212DF0F4
:104900001DFF34F82500083080B20022ECE734F8AF
:1049100025000122083080B204212DF00FFF34F869
:104920002500083080B20122DEE734F8250001229C
:10493000083080B204212DF001FF34F82500083042
:1049400080B20222D0E770BD0C0E0020114A69B17E
:10495000012911D0022915D0032919D132F82000DC
:10496000083080B2C022C0212DF0AABE32F820004B
:10497000083080B20022F6E732F82000083080B21A
:104980004022F0E732F82000083080B28022EAE7C7
:10499000704700000C0E00202DE9F0412F4D064617
:1049A0000F4635F8260001210F3080B22DF078FE39
:1049B00020212B48FBF781FC294C8121012021700B
:1049C00060701B20A0709D20E070032020710C20DF
:1049D00060710020A07138794001E07138790128B8
:1049E00002D0022802D004E0F87801E078790001D2
:1049F00020720420E278235C401C1A44C0B2E270AA
:104A00001F28F7D3D0B24042E07035F826000A30B4
:104A100080B22DF09DFE35F826006178093080B215
:104A20002DF096FE35F82600A1780B3080B22DF0DF
:104A30008FFE032735F82600E15D0D3080B22DF0A2
:104A400087FE7F1CFFB21F2FF4D335F82600BDE888
:104A5000F0410F3080B201212DF064BE0C0E002019
:104A60009C6400202DE9F041574E07460D4636F86C
:104A7000270040210E3080B22DF012FE0E21534847
:104A8000FBF71BFC28796021504C01EA401040F0F4
:104A9000100060706979402201F0030108436070E2
:104AA000A879012804D0022804D0032805D021E0E9
:104AB000A2701FE08020A0701CE0A97AC02041B144
:104AC00001290BD002290CD003290DD004290FD0C5
:104AD00010E0A070E07820F0700007E0A0701020D7
:104AE00004E0A070202001E0A0703020E07001E020
:104AF000A070E270E879012802D0022804D007E013
:104B0000A07840F0100002E0A07840F02000A070F3
:104B1000A07840F00800A070A87B012802D00228ED
:104B200004D007E0E07840F0040002E0E07840F0D4
:104B30000800E070687B2071687C6071697A0129E7
:104B400003D1E17841F08001E170E97A012902D1D5
:104B500040F0400060719120207001202178225C9B
:104B6000401C1144C0B221700E28F7D3C8B2404295
:104B7000207036F8270082210A3080B22DF0E8FD3F
:104B800036F827000221093080B22DF0E1FD36F819
:104B900027000D210B3080B22DF0DAFD002536F80C
:104BA0002700615D0D3080B22DF0D2FD6D1CEDB29D
:104BB0000E2DF4D336F82700BDE8F0410E3080B258
:104BC00040212DF0AFBD00000C0E00209C640020A1
:104BD000074910B531F8200000F5A47080B22DF01F
:104BE0009FFD000C02D00349B1FBF0F010BD0000A6
:104BF000640600200060E3162DE9F0411C4E0746D4
:104C00000C4636F8270000F5CC7080B22DF088FDF8
:104C1000054636F8270000F5CE7080B22DF080FDF5
:104C200001462A0CE580A8186080080C6082501AA2
:104C3000E0812089A188884217D936F8270000F53D
:104C4000C67080B22DF06CFD054636F8270000F5E1
:104C5000C87080B22DF064FD01462A0C2581A81889
:104C6000A080080CA082501A2082BDE8F0810000CC
:104C70006406002070B50B4D044635F82400BC30A6
:104C800080B22DF04DFD062101EAD01635F8240042
:104C900000F5C07080B22DF043FDC043C0F3C000EA
:104CA000304370BD64060020054910B531F820007E
:104CB00000F5B47080B22DF033FD80B210BD00005D
:104CC00064060020054910B531F8200000F5CA70CF
:104CD00080B22DF025FD80B210BD000064060020DA
:104CE000054910B531F8200000F5C87080B22DF0EC
:104CF00017FD000C10BD000064060020054910B52A
:104D000031F8200000F5B87080B22DF009FD80B2B6
:104D100010BD000064060020014608B50A486B4635
:104D2000042200782DF0AEFB9DF803009DF80210E0
:104D300041EA00209DF8011041EA00209DF8001092
:104D400041EA002008BD0000980E00207CB50C460A
:104D5000C1070ED0401E00EBD070C0F34705694676
:104D6000284632F011F88DF805406946284632F0A1
:104D70002BF87CBD7CB50C46C1070ED0401E00EB65
:104D8000D070C0F347056946284631F0FDFF8DF825
:104D900004406946284632F017F87CBD7CB50D46C4
:104DA0001446C10710D0401E00EBD070C0F3470678
:104DB0006946304631F0E8FF8DF801508DF8024029
:104DC0006946304632F000F87CBD000002EB8102FB
:104DD000034931F82000183080B207212DF07FBC44
:104DE000300E00202DE9F0410546108816460F468A
:104DF000002855D07188002952D03988491E91FB6E
:104E0000F0F010F0FF0003D0022803D208220AE0DD
:104E1000042208E0042801D2102204E0082801D26C
:104E2000202200E030221F4C3C2134F82500001DD8
:104E300080B22DF054FC78887188401E90FBF1F010
:104E400010F0FF004FF470414FF47C060AD00428A4
:104E50000BD2002234F82500001D80B22DF03FFC5B
:104E6000002214E04FF44052F4E7082834F82500FB
:104E70004FF4804200F1040080B204D22DF02FFCE8
:104E80004FF4002203E02DF02AFC4FF4801234F896
:104E900025003146BDE8F041001D80B22DF01FBC59
:104EA000BDE8F081300E0020D20102EB811101EB50
:104EB0004312044931F820000C3080B2E0212DF07B
:104EC0000EBC00000CB50308CA00044931F82000EC
:104ED0000C3080B208212DF002BC0000680E0020CA
:104EE0007CB50C46C1070ED0401E00EBD070C0F35D
:104EF00047056946284633F0D3F88DF800406946E7
:104F0000284633F0EFF87CBD08B50A0A8DF800108A
:104F10008DF801200A0C8DF80220090E8DF803107F
:104F2000014603486B46042200782DF0D1FA08BDF3
:104F3000980E00202DE9F84306460F4614461D46FC
:104F40004FF0000808480078EAB22346394600903E
:104F5000304628F0A5FE8046B8F1000F02D10120AE
:104F6000BDE8F8830020FBE7180100202DE9F84395
:104F700006460F4614461D464FF0000808480078C4
:104F8000EAB2234639460090304628F0FBFE8046C0
:104F9000B8F1000F02D10120BDE8F8830020FBE743
:104FA00018010020F0B585B0044600260EF005FB80
:104FB000064643480655314642A033F0D1F80DF07D
:104FC0008BFF0746394649A033F0CAF830460EF049
:104FD000A7FB4F48005D022803D04D48005D042820
:104FE00003D101204B49085502E0002049490855EA
:104FF0004848005DA0B14848029004208DF80000A8
:1050000001208DF8010068460EF0E1FC40F22A40D4
:1050100003901820049003A80DF03CFE054613E011
:105020003E48029004208DF8000001208DF8010018
:1050300068460EF0CCFC40F24A70039018200490B1
:1050400003A80DF027FE054625B1012D06D0022D3F
:105050000CD107E032A033F083F807E036A033F03C
:105060007FF803E03AA033F07BF800BF00BF28F0E0
:10507000BDFC0746394640480EF0A0FB01203F49E1
:1050800001F8240001EB840148703C4901EB8401E4
:1050900088703A4901EB8401C87043F2C82038494E
:1050A00021F8340001EBC4014880354901EBC4010B
:1050B0008880334901EBC401C88005B0F0BD000011
:1050C0001E0500205B44454255475D204D53313855
:1050D0003236204368697020416464726573733AA4
:1050E000203078253032780D0A0000005B444542BC
:1050F00055475D204D53313832362053646B20566E
:10510000657273696F6E3A2025730D0A0000000006
:1051100082010020E8040020A077E20F0065CD1D89
:105120005B494E464F5D2044445220696E697420AD
:105130004F6B2E0D0A0000005B494E464F5D204428
:10514000445220696E6974204661696C2E0D0A0014
:105150005B494E464F5D2044445220696E6974207D
:10516000706172616D6574657220696E76616C69DB
:10517000642E0D0A0000000064B10308120500202F
:10518000160500202DE9FF4F8BB088460546002606
:1051900006E025280BD0DDE90D1290476D1C761C2A
:1051A00028780028F5D10FB03046BDE8F08F0024F4
:1051B000A146A2460122AE4900E0044315F8013F92
:1051C000203B02FA03F00842F7D128782A2810D0B1
:1051D0006FF02F022878A0F13001092915D809EBCA
:1051E000890102EB410144F0020400EB01096D1C4E
:1051F000F0E758F8041B5FEA010903D544F40054B2
:10520000C9F1000944F002046D1C28782E2817D13A
:1052100015F8010F44F004042A280ED06FF02F0275
:105220002878A0F1300109290AD80AEB8A0102EB9B
:10523000410100EB010A6D1CF2E758F804AB6D1C4C
:1052400028786C280FD006DC4C2817D068280DD0A1
:105250006A2814D104E0742810D07A280FD10DE008
:1052600044F400140AE044F4801401E044F44014CF
:105270006978814202D104F580146D1C6D1C287878
:10528000692865D006DC00288DD0632827D06428E3
:1052900006D15DE06E2808D073282AD0752877D013
:1052A000DDE90D129047761CE0E0C4F302500228BD
:1052B00009D003280DD0D8F8001004280DD00E60B6
:1052C00008F10408D2E0D8F80010F217C1E9006232
:1052D000F6E7D8F800100E80F2E70E70F0E718F845
:1052E000041B8DF8001000208DF80100EB46012012
:1052F00003E058F804BB4FF0FF3061074FF00007A0
:1053000001D40AE07F1C57450DDA8742FADB1BF80F
:1053100007100029F6D106E07F1C8742FCDB1BF852
:1053200007100029F8D1DDE90D23A9EB070081461C
:10533000214600F0B1F83044C61904E0DDE90D1251
:105340001BF8010B90477F1EF8D22146484688E0A3
:1053500058F8040BC4F302514FF00A0B032900D193
:1053600000B2042900D140B2002802DA40422D21C7
:1053700002E0210505D52B218DF82410012104E040
:1053800006E0E10710D02021F6E708AF089113E00E
:1053900058F8040BC4F302514FF00A0B032900D153
:1053A00080B2042900D1C0B20021EEE75946FAF7D5
:1053B000A5FF303107F8011D0028F7D1ADEB07003C
:1053C00000F1200B600702D524F4803401E04FF097
:1053D000010ADA4502DDAAEB0B0000E0002082465C
:1053E00000EB0B0108980144A9EB01000A90E003CF
:1053F00006D4DDE90D2321460A9800F04DF8064455
:105400004FF0000908E009A911F80900DDE90D12C3
:10541000904709F10109761C08998945F3DBE003FF
:105420000CD5DDE90D2321460A9800F035F8064435
:1054300004E0DDE90D1230209047761CBAF100013E
:10544000AAF1010AF5DC05E0DDE90D1217F8010B00
:105450009047761CBBF10001ABF1010BF4DC0A981C
:105460002146DDE90D2300F005F806446D1C97E6A2
:10547000092801002DE9F041044600251E46174683
:10548000880404D405E039462020B0476D1C641E12
:10549000F9D52846BDE8F0812DE9F0410446002504
:1054A0001E469046C80301D5302700E02027880417
:1054B00004D505E041463846B0476D1C641EF9D559
:1054C0002846BDE8F081000010B50446FE48005DA6
:1054D00004EB840101EB4411FC4A02EB011108705A
:1054E000002004EB840101EB441102EB0111487030
:1054F00004EB840000EB441002EB0011204602F0A4
:10550000B1FDF148005D04EB840101EB4411EF4A69
:1055100002EB011181F89400012104EB840000EBFF
:10552000441002EB001080F8951004EB840000EBAF
:10553000441002EB001000F19401204602F092FDAD
:10554000E148005D04EB840101EB4411DF4A02EB0A
:10555000011181F82801022104EB840000EB4410C2
:1055600002EB001080F8291104EB840000EB4410DA
:1055700002EB001000F59471204602F073FDD24852
:10558000005D04EB840101EB4411D04A02EB0111F0
:1055900081F8BC01032104EB840000EB441002EB12
:1055A000001080F8BD1104EB840000EB441002EB06
:1055B000001000F5DE71204602F054FDC248005D87
:1055C000C4EB0411C24A02EB411108700020C4EB85
:1055D000041102EB41114870C4EB041002EB4011BE
:1055E000204604F019FCB848005DC4EB0411B84A29
:1055F00002EB411181F878000121C4EB041002EBA9
:10560000401080F87910C4EB041002EB401000F158
:105610007801204604F000FCAB48005DC4EB0411A7
:10562000AB4A02EB411181F8F0000221C4EB0410F7
:1056300002EB401080F8F110C4EB041002EB4010B4
:1056400000F1F001204604F0E7FB9F48005DC4EB49
:1056500004119F4A02EB411181F868010321C4EB58
:10566000041002EB401080F86911C4EB041002EB47
:10567000401000F5B471204604F0CEFB04EB84002A
:1056800000EB4410914901EB0010007810B19148F3
:10569000007801E09048007804EB840101EB4411AC
:1056A0008A4A02EB011181F88900002104EB840091
:1056B00000EB441002EB001080F88B1004EB840127
:1056C00001EB441102EB011101F189000EF0B5FA72
:1056D00004EB840000EB44107C4901EB001090F8CF
:1056E000940010B17B48407801E07B48407804EB9F
:1056F000840101EB4411754A02EB011181F81D018F
:10570000012104EB840000EB441002EB001080F850
:105710001F1104EB840101EB441102EB011101F2B2
:105720001D100EF08AFA04EB840000EB4410674968
:1057300001EB001090F8280110B16648807801E074
:105740006548807804EB840101EB44115F4A02EB69
:10575000011181F8B101022104EB840000EB441037
:1057600002EB001080F8B31104EB840101EB44114B
:1057700002EB011101F2B1100EF05FFA04EB8400AC
:1057800000EB4410514901EB001090F8BC0110B13E
:105790005048C07801E05048C07804EB840101EB28
:1057A00044114A4A02EB011181F84502032104EB3E
:1057B000840000EB441002EB001080F8471204EB69
:1057C000840101EB441102EB011101F245200EF0BE
:1057D00034FAC4EB04103E4901EB4010007810B1DC
:1057E0003E48007801E03E480078C4EB0411384A96
:1057F00002EB411188700221C4EB041002EB40104F
:10580000C1700021C4EB041002EB4010C171C4EB65
:10581000041002EB40100172C4EB041002EB4010C4
:1058200081713048005D042821D104EB440000EB75
:10583000C4002D4901EBC000808941F2707188429B
:1058400006DB0021C4EB041002EB4010417106E0BE
:105850000121C4EB04101E4A02EB401041710021EB
:10586000C4EB04101A4A02EB4010017106E001215A
:10587000C4EB0410164A02EB40100171C4EB041192
:10588000134A02EB4111881C0DF0A9F9C4EB041076
:105890000F4901EB4010007810B10E48007801E08C
:1058A0000D480078C4EB0411094A02EB411181F85C
:1058B0006E000021C4EB041002EB401080F86F1062
:1058C000C4EB041112E00000E8040020745700202B
:1058D000C4590020DEA80308DAA80308A2A8030818
:1058E0009EA80308820100203849002002EB4111E4
:1058F000881C0DF052F9C4EB0411FE4A02EB411171
:10590000881C0DF0B1F9C4EB0411FA4A02EB411105
:10591000881C0DF09FF9C4EB0411F64A02EB41110B
:1059200001F16E000EF0CCF90021C4EB0410F14A35
:1059300002EB401080F87110C4EB041102EB41112E
:1059400001F16E000EF083F9C4EB0410E94901EB9C
:10595000401090F8780010B1E748407801E0E7483F
:105960004078C4EB0411E34A02EB411181F87A005C
:105970000221C4EB041002EB401080F87B100021E0
:10598000C4EB041002EB401080F87F10C4EB04104D
:1059900002EB401080F88010C4EB041002EB4010C2
:1059A00080F87E10D648005D042824D104EB440022
:1059B00000EBC400D34901EBC000408C41F2707190
:1059C000884207DB0021C4EB041002EB401080F892
:1059D0007D1007E00121C4EB0410C64A02EB401021
:1059E00080F87D100021C4EB0410C24A02EB401085
:1059F00080F87C1007E00121C4EB0410BD4A02EBE3
:105A0000401080F87C10C4EB0411BA4A02EB41113B
:105A100001F17A000DF0E3F8C4EB0410B54901EB95
:105A2000401090F8780010B1B748407801E0B748CE
:105A30004078C4EB0411AF4A02EB411181F8E60053
:105A40000121C4EB041002EB401080F8E710C4EB16
:105A5000041102EB411101F17A000DF09EF8C4EB44
:105A60000411A44A02EB411101F17A000DF0FCF897
:105A7000C4EB04119F4A02EB411101F17A000DF0D1
:105A8000E9F8C4EB04119B4A02EB411101F1E60075
:105A90000EF016F90121C4EB0410964A02EB4010F7
:105AA00080F8E910C4EB041102EB411101F1E600AA
:105AB0000EF0CDF8C4EB04108E4901EB401090F8C5
:105AC000F00010B18C48807801E08C488078C4EBFD
:105AD0000411884A02EB411181F8F2000221C4EB63
